:020000040800F2
:10000000C00B0020F9010008A9420008273C0008A5
:10001000A5420008FD1A0008714C0008000000000D
:10002000000000000000000000000000B1440008D3
:10003000011B00080000000085440008B3440008CC
:10004000130200081302000813020008130200083C
:10005000130200081302000813020008130200082C
:10006000130200081302000813020008130200081C
:10007000130200081302000813020008130200080C
:1000800013020008130200081302000813020008FC
:1000900013020008130200081302000813020008EC
:1000A00013020008130200081302000813020008DC
:1000B000254500083545000845450008130200089D
:1000C00013020008130200081302000813020008BC
:1000D00013020008094C0008354C0008454C000884
:1000E000130200081302000813020008130200089C
:1000F000130200081302000813020008130200088C
:1001000013020008130200085545000813020008F6
:10011000130200087548000813020008654500082E
:10012000130200081302000813020008130200085B
:1001300000F002F800F050F80AA090E8000C8244A9
:100140008344AAF10107DA4501D100F045F8AFF286
:10015000090EBAE80F0013F0010F18BFFB1A43F0A5
:1001600001031847E862000008630000103A24BF4A
:1001700078C878C1FAD8520724BF30C830C144BF0C
:1001800004680C607047000000230024002500264E
:10019000103A28BF78C1FBD8520728BF30C148BFEA
:1001A0000B607047642900F0BF80632900F0F18183
:1001B000002070471FB500F071FD040000200021F1
:1001C00005F0B8FB401C60600020002105F09CFB9E
:1001D000E0601FBD10B510BD00F06CFA1146FFF7CE
:1001E000E9FF04F025FF00F00FFD03B4FFF7F2FF75
:1001F00003BC00F0F3FF00000948804709480047AE
:10020000FEE7FEE7FEE7FEE7FEE7FEE7FEE7FEE7C6
:10021000FEE7FEE704480549054A064B7047000023
:100220002145000831010008C0050020C00B002056
:10023000C0070020C00700200FB41CB50C0007AA9F
:10024000009001D02044401E074B7B44694601903A
:10025000069800F074F9002C03D06946002000F0E5
:1002600081F91CBC5DF814FB210300002DE9F0416D
:100270000E460446002020622046E168884730B3DD
:10028000252805D0D4E901219047206A401CF2E7D7
:10029000E168204600278847050018D0A5F14100F5
:1002A000192802D820354FF40067324629462046E7
:1002B0002760FFF777FF40B1012804D0F61D26F034
:1002C00007060836D8E7361DD6E72846DAE7206A5B
:1002D000BDE8F08170B50C460546012A05D02878A6
:1002E000800600D5EA69002302E0012305E05B1CDB
:1002F000934202D2E05C0028F9D1A869E618C01A3E
:10030000A861286A184428622846AFF3008004E0F8
:10031000D5E9012114F8010B9047B442F8D32846DF
:10032000AFF3008070BD00002DE9F04106460024C7
:1003300010687529314616A510D0AFF3008000284B
:1003400002DA404213A507E031688A0701D512A5F9
:1003500002E0490704D511A5012401E0AFF30080B4
:1003600000210A2206F1240709E0B0FBF2FCB0FBF1
:10037000F2F302FB1C00303078541846491C002868
:10038000F3D123462A463046BDE8F04100F078B864
:10039000000000002D0000002B00000020000000E5
:1003A000401ECAB210F8011F8A4202D00029F9D1BA
:1003B0000020704730B505460B462A4613F8014B1E
:1003C00012F8010B08B1A042F8D01CB1002802D0ED
:1003D0006D1CF1E7284630BD10B5431C02E010F853
:1003E000011B71B18107FAD14FF0013202C88C1A9A
:1003F0008C4314EAC211F9D0C01A0A0603D0C01EF9
:1004000010BDC01A10BD0A0401D0801E10BD090223
:10041000FCD0401E10BD4FF0000200B513469446BC
:100420009646203922BFA0E80C50A0E80C50B1F14C
:100430002001BFF4F7AF090728BFA0E80C5048BF60
:100440000CC05DF804EB890028BF40F8042B08BFFE
:10045000704748BF20F8022B11F0804F18BF00F8FA
:10046000012B704770477047704710B500F0F0F8E7
:10047000006810BD10B5044600F0EAF8046010BD35
:100480002DE9F0470D4699469246044600F12408AE
:100490000168880604D5E06921F01001216000E0C0
:1004A0000120A84201DD471B00E00027A1697A195D
:1004B00002EB0900081AA0612078C00602D4204689
:1004C000AFF30080002608E0D4E901211AF8060005
:1004D0009047206A401C761C20624E45F4DB207851
:1004E000C0060AD52046AFF3008006E0D4E901211A
:1004F00030209047206A401C2062381EA7F1010777
:10050000F4DC07E0D4E9012118F805009047206ADF
:10051000401C2062281EA5F10105F3DC2046AFF344
:1005200000802078000602D50220BDE8F087012077
:10053000FBE7000001694A1C02610878704700B5BA
:100540008FB0CDE901310021059105497944CDE90C
:10055000031011466846FFF789FE0FB000BD00008A
:10056000E5FFFFFF0A6802F8010B0A607047D1E956
:1005700000239A4202D2531C0B601070704710B5D2
:10058000436913B1AFF3008001E0FFF7A3FE012040
:1005900010BD127800F124010A7000224A70012275
:1005A000EDE711684FF0FF32E9E700000FB40023D8
:1005B00000B589B00CA900910B99CB60214B7B440D
:1005C0000693214B7B44079304236FF00042CDE94F
:1005D00001321E4A7A446B4608920246002005F01A
:1005E0009BFD09B05DF814FB70B506464FF0FF3077
:1005F00015460C46324686B00091CDE901016946A8
:100600000020049004A8FFF7D1FF024604982118A7
:1006100025B108B1084600E020462860049800286B
:100620000DD0002A02DD0098884208D03246081B0F
:1006300069460094CDE9010404A8FFF7B7FF06B0AE
:1006400070BD0000A9000000C10000008100000092
:10065000004870476005002010B5044600F050F8CF
:100660000068005D00F0010010BD426842B1016801
:1006700011F8013B23B1521EC0E900121846704721
:100680000121C160881E704742685AB1C368016881
:1006900043B983688B4205D0491E521CC0E9001241
:1006A000002070474FF0FF3070470000004870474F
:1006B000600500207546FFF7F9FFAE460500694664
:1006C000534620F00700854618B020B5FFF7A2FD7D
:1006D000BDE820404FF000064FF000074FF0000843
:1006E0004FF0000B21F00701AC46ACE8C009ACE8C4
:1006F000C009ACE8C009ACE8C0098D4670470000ED
:1007000010B500F0CBFA001D10BD00BF295200004B
:100710002DE9FF4F06468BB00878FF2806D0491C0C
:100720002D2805D000244FF0000908E000200CE03F
:100730000124F8E709EB8903491C00EB4309087819
:10074000FF28F7D114B1C9F10000814610780025C7
:100750002C46AA4629462D2801D02B2804D1521C0C
:100760002D2813D0002082468B461078FF280FD00A
:100770004FF0000C0A21521CA5FB017804FB0181FB
:1007800005FB0C11C5194BEB0104EEE70120EAE76C
:10079000002108464FF00000BAF1000F02D000EB34
:1007A00080004008C0F38157012F01DD4FF0FF3773
:1007B0000E9955EA040009EB01080BD04FF002092D
:1007C00018F5FA7F16DA4FEACA70002F706008DD5C
:1007D000012007E04FEACA70C6E900B00FB0BDE8DB
:1007E000F08F00203060FFF733FFC0F80090182131
:1007F000084616E0B8F5FA7F18DD002F02DAF74850
:10080000784401E0F6487844D0E90010C6E90010C9
:1008100040EACA707060FFF71BFFC0F80090142117
:1008200008460FB0BDE8F04F05F013BC00210846A4
:100830004FF00000B8F10001099002DAC7F10002A0
:1008400000E03A4601DAC8F1000106A800F02AFAF1
:1008500006AB93E8070003AB83E8070044F23E00D1
:100860005BEA04010090584604D144F21E012C4674
:100870005D460091210C0904014306D1009924042E
:1008800044EA15442D041039009104F07F410143DE
:1008900006D10099240244EA15642D02083900911A
:1008A00004F07041014306D10099240144EA157413
:1008B0002D01091F009104F04041014306D1009928
:1008C000A40044EA9574AD00891E009104F0004133
:1008D000084304D100986D196441401E00904FF008
:1008E00001033A466846B8F1000FCDE9014503A976
:1008F00002DD00F026FF01E000F0F9FEBAF1000F82
:1009000004460D4601D084F00044002108464FF013
:100910000000099940F2FF77484010F00C0F07D112
:1009200024F00040284303D0C4F30A50B84212D147
:10093000FFF78EFEC0F80090C4F30A50B8420AD107
:10094000A8487844D0E90010C6E9001004F000413E
:100950000843706042E7C6E900543FE72DE9FF4FC6
:100960001F464FF0000A4FF0FF38454691B0D7E9D7
:100970000146CDF83CA000F091F9C0680168405CE8
:100980001090B96912986D1C8847396A814688476A
:100990000028F6D1B9F1FF3F0AD0002E24F4D0642C
:1009A00011DDB9F12B0F08D0B9F12D0F0BD102E0F9
:1009B000404615B013E744F48064B96912986D1C81
:1009C0008847761E8146600504A901D52D2000E0E8
:1009D0002B20002E01F1010B0DF130088DF81000D5
:1009E0003FDDB9F1690F08D0B9F1490F05D0B9F170
:1009F0006E0F02D0B9F14E0F1CD13B4601A80095F5
:100A000080E85002DDE912126FF0020005F088FB69
:100A1000C11CCED10EE0B96912986D1C8847814681
:100A20001398761E44F4007405600F98401C002E45
:100A30000F9016DDB9F1300FEDD0B9F1780F02D07B
:100A4000B9F1580F0DD10F9801280AD13B46CDE9D5
:100A50000054DDE91212001F029605F05FFBC11C75
:100A6000A7D1109989453ED144F0800406E013993E
:100A7000681CAAF1010A44F400740860B9696D1C8D
:100A80001298761E884730288146F0D02BE01099C6
:100A9000894505D1200603D4761E44F0800418E071
:100AA000484604F084F908B3761E0DF123018B4506
:100AB00044F4007408D2A9F130000BF8010B2006B1
:100AC00007D5AAF1010003E0200602D40AF10100D3
:100AD0008246A00502D51399681C0860B96912986E
:100AE0006D1C88478146002ED1DC53E0002E51DD7D
:100AF000B9F1650F02D0B9F1450F4BD1A00549D529
:100B0000B9696D1C1298761E24F440748847002E33
:100B100081460CDD2B2804D0B9F12D0F07D144F408
:100B20008074B96912986D1C8847761E8146E0056D
:100B300001D52D2100E02B2108F8011BCDF8008004
:100B400021E0761E0DF13901884544F400740CD281
:100B5000A9F1300010F0FF0088F8000002D10099E0
:100B6000884509D908F1010806E0E00501D51E48CD
:100B700001E042F20F708246B96912986D1C8847F5
:100B8000814613980560002E04DD484604F00FF9F5
:100B90000028D6D1F96912988847FF2053468BF870
:100BA000000088F8000000200A900B9004AA0CA90D
:100BB0000AA8FFF7ADFDA00502D46FF00100F8E62A
:100BC00014F0240F12D0E0071CD13868DDE90A12B6
:100BD000031D3B600068C0E9001213E0705C000078
:100BE000625C0000265B0000F1D8FFFF0AA968469E
:100BF00004F06CF8E00705D13868009A011D3960EF
:100C0000006802602846D4E610B50446AFF30080C1
:100C10002046BDE81040FFF7E8BA00004FF0013C65
:100C200050F8042B51F8043B9A4221D1A2EB0C035B
:100C3000934313EACC1317D150F8042B51F8043B1B
:100C40009A4215D1A2EB0C03934313EACC130BD1B8
:100C500050F8042B51F8043B9A4209D1A2EB0C0343
:100C6000934313EACC13DBD04FF00000704700BF72
:100C7000D01A01BAB1FA81F101F0180122FA01F09B
:100C8000CB40C1F12001DBB2C0B2C01A2CFA01F393
:100C9000D11A914311EAC311E6D170470048704759
:100CA000800500202DE9F047814616468AB0354878
:100CB00078440DC88DE80D0032487844801C03ACA0
:100CC0000DC884E80D0041F69B300844372190FBA5
:100CD000F1F290FBF1F5A5F1800501FB12041B3C3C
:100CE00002D56442012000E00020DFF898A0804691
:100CF0000027FA44AAF1BE0A0EE0E0070AD0324605
:100D0000684607EB470101230AEB810100F004FD6F
:100D10008DE8070064107F1C002CEED1194F7F4432
:100D2000AE3F19E0E80715D007EB04100DF1180AE3
:100D300090E80E008AE80E00C068F04201D19819D0
:100D400008903246012306A903A800F0E5FC03AB96
:100D500083E807006D10641C002DE3D14FF0010300
:100D600032466946B8F1000F03A802D000F0AAFC91
:100D700001E000F0D1FCC9E90001C9F808200AB07F
:100D8000BDE8F087805700002DE9FF4F1F464FF068
:100D90003C0987B04FF00042DDE9141001F1010871
:100DA000DDF858A002EA40500390002005908346E9
:100DB000054604460490B969461E08988847AAF17A
:100DC000010A0290BAF1000F3BDD02982E2815D0DF
:100DD000102100F01CFA00282EDB4FF0010B0599C2
:100DE000014317D0B9F1000F0BDB4A46C11700F0E1
:100DF000FBF905430C43A9F1040905E00120049027
:100E00000BE008B145F0010501200590049820B9D8
:100E1000361D02E0049800B1361FB969089808F140
:100E200001088847BBF1000FAAF1010A0290C9D05E
:100E30000999C1F80080C5E70298702808D05028A9
:100E400006D0F96908988847BBF1000F14D04FE02D
:100E5000002002900120BBF1000F049009D0B96975
:100E6000089808F101088847AAF10109B9F1000FB3
:100E700007DCF969089888476FF001000BB0BDE8FE
:100E8000F08F2B2804D02D280CD14FF0FF30049088
:100E9000B969089808F101088847A9F10109B9F171
:100EA000000FE6DD411CE4D00A2100F0B0F9002873
:100EB000DFDB029908F1010801EB810100EB410041
:100EC0000290B969089888470A2100F0A0F9099AA8
:100ED000A9F10109B9F1000FC2F8008001DD002875
:100EE000E7DAF969089888470499029800FB0166D7
:100EF00055EA040004D004F04041090002D006E0A5
:100F0000039898E0A40044EA9574AD00B61E04F07E
:100F10000041080002D16D196441761E159810F049
:100F2000240F03D04FF00B095C4803E04FF0280971
:100F30006FF07D008246564507DAAAEB0601894428
:100F4000B9F1410F01DD4FF0410901200021A9F164
:100F5000010200F049F9024628400B4621400843AF
:100F600001D0012100E00021501E029143F1FF3128
:100F700028402140084301D0012000E000200299D0
:100F8000834651EA0B014FD0002108464FF0000084
:100F9000039900F4400039B100EB80004FF44001A8
:100FA00000EBD07001EA60008015012802DD4FF0EF
:100FB000FF3000E013D0401C36D0029860B3BBF184
:100FC000000F0CD14A460120002100F00DF9284005
:100FD0002140084301D0012000E00020E0B10120C1
:100FE0004A46002100F000F9034640190A466141D3
:100FF0002D1A8C4111D3B9F1400F09DD159810F06D
:10100000240F02D0AAF1340603E0AAF1170600E08B
:10101000761C00254FF0004406E05B1E42F1FF32D3
:1010200020EA030521EA0204CAF10100B04206DA0F
:101030001B49039808430190002000900EE0039A9A
:10104000C4F3D321E80A0A43164940EA44500A434C
:101050003146CDE90002684603F09EFE159810F077
:10106000240F0BD01598C00715D13868DDE90012A0
:10107000031D3B600068C0E900120CE002A869464D
:1010800003F024FE1598C00705D13868029A011DA7
:101090003960006802604046F0E6000002FCFFFF95
:1010A0000000F07F0000F03F2DE9FF4F92461D4603
:1010B00085B04FF00041DDE9124BDDE914727F1E6F
:1010C00001EA4B50414940F0FF4940EA0108002144
:1010D00022F020004928049102D04E2828D04CE06C
:1010E0003BA0012607C88DE80700A9690698641C83
:1010F00088477F1E014606D41DF8060018B121F06E
:10110000200181420BD0E96906988847032E34D02C
:10111000082E32D06FF0010009B0BDE8F08F761CC8
:10112000032E01D0082EE0D1601CCAF80000DCE7D5
:10113000A9690698641C88477F1E2AD420F02000E5
:10114000412826D1A9690698641C88477F1E20D4AF
:1011500020F020004E281CD1A9690698641C8847FD
:101160007F1E48F4002849F48009CAF8004001D4E1
:10117000282806D0E969069888475FEACB7012D024
:1011800022E0A9690698641C88477F1E01D40028C4
:1011900003DAE96906988847BCE72928F1D1641C7D
:1011A000CAF80040E9E71BF0240F07D0286804992B
:1011B000031D2B600068C0E9001805E02868021DC7
:1011C0002A600068C0F800902046A5E70000F07F84
:1011D000494E46494E495459000000000149182023
:1011E000ABBEFEE726000200B2F120030AD5C2F131
:1011F000200301FA02F120FA03F300FA02F041EAB7
:101200000301704700FA03F14FF0000070473A28DD
:1012100000D2303820F02002412A01D3A2F1370059
:10122000884201D34FF0FF307047704720F07F4C69
:1012300080EA030023F07F47ACEB070303F57C5300
:1012400000F0004003F1FF032DE980494FEA154B00
:1012500009B44FEA144325EA0B4E24EA03480FF27F
:10126000042606EB132749083E785FEA320203FBA7
:101270000667C7F5000707FB06F64FEA54374FEA43
:10128000D64606F1020607FB066CCCF1005C4FEA7D
:101290001C472CEA074C07FB06F40CFB06F504EB95
:1012A00015464FEA961634BF00204FF000404FEA33
:1012B000D13706FB07FC4FEA1C4C0CFB0BF7D21B8B
:1012C00003FB0CF761EB07010CFB0EF7B0EB0740DB
:1012D00072EB17420CFB08F734BFA2EB0742B2EBEC
:1012E000074261EB17414FEA0C444FEA910706FBB6
:1012F00007FC4FEA1C4C0CFB0BF7B0EBC74072EB42
:10130000573203FB0CF734BFA2EBC742B2EBC74224
:1013100061EB57310CFB0EF7B0EBC70072EB577265
:101320000CFB08F734BFA2EBC702B2EBC70261EBBC
:101330005771039F4FEA816141EA921104EBCC049B
:101340004FEAD1374FEA826206FB07FC42EA90126D
:101350004FEA80604FEA1C4C0CFB0BF7D21B03FBDF
:101360000CF761EB07010CFB0EF7B0EB074072EBDB
:1013700017420CFB08F734BFA2EB0742B2EB07425F
:1013800061EB17414FEA8C554FEA910704EB9C241F
:1013900006FB07FC4FEA1C4C0CFB0BF7B0EBC740FD
:1013A00072EB573203FB0CF734BFA2EBC742B2EB30
:1013B000C74261EB57310CFB0EF7B0EBC70072EB85
:1013C00057720CFB08F734BFA2EBC702B2EBC7029F
:1013D00061EB577115EB4C254FEA816141EA92119F
:1013E0004FEA82624FEAD13742EA901206FB07FCCD
:1013F00044F100044FEA80604FEA1C4C0CFB0BF7F1
:10140000D21B03FB0CF761EB07010CFB0EF7B0EBF3
:10141000074072EB17420CFB08F734BFA2EB074200
:10142000B2EB074261EB174115EB1C154FEA813116
:1014300041EA92414FEA823242EA90424FEA8030DA
:101440004FEA0C7644F1000448EA03434EEA0B48A5
:101450004FF0000EB2EB080C71EB030724BF62469D
:1014600039464EEB0E0E4FF0000B00185241494129
:101470004BEB0B0BB2EB080C71EB03077BF1000B92
:1014800024BF624639464EEB0E0E4FF0000B00189B
:10149000524149414BEB0B0BB2EB080C71EB0307CC
:1014A0007BF1000B24BF624639464EEB0E0E51EA2B
:1014B000020718BF46F0010616EB0E7655F1000242
:1014C00054F1000103D5BDE88901BDE80088BDE8FD
:1014D0008901BDE80048B619524141EB0101A3F171
:1014E0000103704780807F7E7D7C7B7A7978777678
:1014F00076757473727171706F6E6E6D6C6C6B6AF1
:101500006A6968686766666564646363626161608E
:10151000605F5F5E5E5D5D5C5C5B5B5A5A5959580B
:101520005857575656555555545453535252525175
:10153000515050504F4F4F4E4E4D4D4D4C4C4C4BCB
:101540004B4B4A4A4A494949484848474747474612
:10155000464645454544444444434343434242424E
:101560004241414146EA0646A3F570534FEA16460A
:1015700046EA42564FEAD22242EA415210B54FEAB9
:10158000D121A3F1010300F02FF820F0004000F179
:10159000020C00F0004701EB00501146BCF5006F53
:1015A00040EA070000D210BDBAF1000F0AD01CB506
:1015B00003B44FF004004FF004014FF000000FBCE3
:1015C000BDE810404FF00001BBF1010FB9BF044866
:1015D0004FF0FF310348002140EA070010BD00BF73
:1015E000FFFFEF7F0000F07F002B9C4630D4770098
:1015F0002BD01CB54FEA370703B44FF010004FF063
:101600001001BAF1000F06D0BCF1000FDCBF40F0B2
:10161000080040F008014FF000000FBCBDE810408A
:101620000BF1010BBBF1010F08BF5FEA170722BFE7
:1016300012F1010211F101014FF0004143F10003E9
:1016400000F0004043EA00007047F9D35708D0E7A4
:1016500046EA064613F1400F4FEA16461FDD13F126
:10166000200FDFBF16430A46002120335B42BED065
:10167000C3F1200746EA064602FA07F74FEA164684
:1016800046EA0706C3F1200722FA03F201FA07F738
:1016900021FA03F14FF0000342EA0702A7E746EA06
:1016A000020646EA06464FEA164646EA0106BCBF6F
:1016B00046EA0646360C4FF000034FF000024FF0AA
:1016C000000194E72DE9804C9A46934670B491E866
:1016D000380007C831EA400C48BF34EA430C03D550
:1016E000FFF7A4FDFFF780FFF0BCBDE8008C2DE9FB
:1016F000804C9A46934670B491E8380007C831EAA6
:10170000400C48BF34EA430C03D5FFF78FFDFFF7C9
:1017100029FFF0BCBDE8008C2DE9804C9A46934629
:1017200070B491E8380007C810F0804F08BF13F07C
:10173000804F03D100F01AF8FFF756FFF0BCBDE868
:10174000008C2DE9804C9A46934670B491E838009D
:1017500007C810F0804F08BF13F0804F03D100F08E
:1017600005F8FFF7FFFEF0BCBDE8008C20F07F47D6
:1017700080EA030023F07F4C07EB0C03A3F57C53B6
:1017800000F00040A3F1FE0392F0000F00F0B380E0
:1017900095F0000F00F077802DE901494FEA1140E4
:1017A0004FEA144621EA004800FB06FC24EA0647FB
:1017B00008FB06F607FB08F800FB07F718EB0648DE
:1017C0004CEB164C4FEA124B18EB07484FEA154604
:1017D0004CEB174022EA0B4E0BFB06FC25EA0647B2
:1017E0000EFB06F607FB0EFE0BFB07F71EEB064E85
:1017F0004CEB164C4FF000061EEB074E4CEB174B14
:1018000018EB0B0840F1000018EB0E0B58EB00082A
:1018100040F100008F1A4FF000013CBFC943661B26
:1018200014BFB5EB040C00213CBFC943F61B4FEAC3
:1018300017444EEA8E0E27EA04454FEA1C4704FB84
:1018400007622CEA074C05FB07F70CFB05F604FBC7
:101850000CFC16EB074642EB174216EB0C4642EB2C
:101860001C421BEB060658EB0202414146EA9E066B
:1018700001D5BDE80189B619524141EB0101A3F13F
:101880000103BDE801894FEA14454FEA114724EAF4
:10189000054621EA074C05FB07F406FB07F70CFB9E
:1018A00006F105FB0CFC11EB074144EB17444FEA32
:1018B000124711EB0C4144EB1C4422EA074C05FB98
:1018C00007F206FB07F70CFB06F605FB0CFC16EB14
:1018D000074642EB174216EB0C4642EB1C456A18D2
:1018E00054F1000148BF7047B619524141EB010164
:1018F000A3F10103704795F0000F37D04FEA114272
:101900004FEA144721EA024624EA074C02FB07F19A
:1019100006FB07F70CFB06F402FB0CFC14EB074478
:1019200041EB17414FEA154714EB0C4441EB1C41C6
:1019300025EA074C02FB07F506FB07F70CFB06F64A
:1019400002FB0CFC16EB074645EB174516EB0C4665
:1019500045EB1C42121951F1000148BF7047B619FE
:10196000524141EB0101A3F1010370474FEA1445D5
:101970004FEA114724EA054621EA074C05FB07F127
:1019800006FB07F70CFB06F24FF0000605FB0CFC0C
:1019900012EB074241EB174112EB0C4251EB1C4199
:1019A00048BF7047921841EB0101A3F10103704752
:1019B00010B502F090FC4120114908704220487097
:1019C0004320887000200F4908700F4908700120DB
:1019D0000E4908700E480068C06840F020000C49AD
:1019E0000968C8600B480068C06840F020000949D9
:1019F0000968C86000F064FB0749086010BD00007A
:101A000025000020280000202400002029000020BC
:101A100014030020840200204000002010B500F0D4
:101A20004FFB29490968401A0A2805D300F048FBF2
:101A30002549086002F00AF92448007820B10128FD
:101A400012D002283DD123E002F0F0F8044614B190
:101A5000204603F095FB1E48007820B103F02AFBD6
:101A600000201B4908702CE01A48008838B11A4839
:101A700003F0AEFC0020174908801849087014488C
:101A8000007820B103F096FD00201149087018E09D
:101A90000F48007870B102F009FC11A20A2102205F
:101AA00002F0AAFC12A20A21042002F0A5FC0020E8
:101AB0000749087000231A461946184603F066FCC9
:101AC00000BF00BF10BD0000400000202400002027
:101AD00029000020120000203404002014000020FF
:101AE0005461736B20436F6D706C657465210000E9
:101AF000416C6C20446F6E65203A290000BFFEE700
:101B00007047000010B53C21074801F099FA3C21CC
:101B1000064801F095FA3C21054801F091FA3C2174
:101B2000044801F08DFA10BD440000208C00002014
:101B3000D40000201C01002072B600BFFEE7014661
:101B4000002291F82100022808D00420886300BFF9
:101B5000002081F8200000BF01207047086800685D
:101B600020F00E000B6818600868006820F0010083
:101B70000B68186091F8403001209840CB6B58609A
:101B8000012081F8210000BF002081F8200000BF63
:101B90001046E2E770B50446002594F821000228BB
:101BA00003D00420A0630125C1E02068006820F074
:101BB0000E00216808602068006820F0010021689C
:101BC00008605C492068884252D95A4978392068AF
:101BD000884201D1012047E0564964392068884293
:101BE00001D1102040E0534950392068884201D18A
:101BF000801539E04F493C392068884201D1801472
:101C000032E04C4928392068884202D14FF48030B4
:101C10002AE0484914392068884202D14FF48010E4
:101C200022E044492068884201D140041CE0424936
:101C30002068884201D1012016E03F491431206814
:101C4000884201D110200FE03B49283120688842AA
:101C500001D1801508E038493C312068884201D123
:101C6000801401E04FF480303349091F086051E0CF
:101C7000304978392068884201D1012047E02D4958
:101C800064392068884201D1102040E02949503948
:101C90002068884201D1801539E026493C39206806
:101CA000884201D1801432E02249283920688842D4
:101CB00002D14FF480302AE01E491439206888424E
:101CC00002D14FF4801022E01A492068884201D1E5
:101CD00040041CE018492068884201D1012016E028
:101CE000154914312068884201D110200FE01249B3
:101CF00028312068884201D1801508E00E493C3126
:101D00002068884201D1801401E04FF480300949F5
:101D100080394860012084F8210000BF002084F849
:101D2000200000BF606B10B12046616B88472846D9
:101D300070BD0000800002400804024070B50446F7
:101D400000F0BEF906462546681C10B1044800782C
:101D5000054400BF00F0B4F9801BA842FAD370BD5F
:101D6000080000202DE9F847024600239C467BE14D
:101D70004FF0010808FA03F4D1F8008008EA0400E3
:101D8000A0427DD1DFF8F4A2D1F80480A8EB0A09C3
:101D9000D0453AD014DCB8F1030F50D009DCB8F1CB
:101DA000000F31D0B8F1010F1CD0B8F1020F49D1AA
:101DB00020E0B8F1110F18D0B8F1120F42D11EE097
:101DC000B9F5881F25D006DCB9F5803F20D0B9F5DC
:101DD000801F37D11AE0B9F5001F18D0B9F5041FDC
:101DE00030D117E0D1F80CC02DE0D1F80C8008F10B
:101DF000040C28E0D1F80C8008F1080C23E0D1F89D
:101E00000C8008F10C0C1EE000BF00BF00BF00BF3B
:101E100000BF00BFD1F80880B8F1000F02D14FF029
:101E2000040C0BE0D1F80880B8F1010F03D14FF09A
:101E3000080C146102E04FF0080C546103E04FF00D
:101E4000000C00E000BF00BFFF2801D8904601E071
:101E500002F104084646FF2802D84FEA830803E04F
:101E6000A3F108084FEA88084746D6F800804FF0EB
:101E70000F0909FA07F928EA09080CFA07F900E03E
:101E80007AE048EA0908C6F80080D1F8048008F032
:101E90008058B8F1805F6FD100BFDFF8E481D8F8D7
:101EA000188048F00108DFF8D891C9F81880C846B2
:101EB000D8F8188008F00108CDF8008000BF00BFF6
:101EC0004FEAB9384FEA930958F829504FEA837816
:101ED0004FEA18794FF00F0808FA09F825EA0805C3
:101EE000DFF8A081424502D14FF0000824E0DFF87E
:101EF0009881424502D14FF001081DE0DFF88C8146
:101F0000424502D14FF0020816E0DFF884814245D5
:101F100002D14FF003080FE0DFF87881424502D18B
:101F20004FF0040808E0DFF87081424502D14FF01D
:101F3000050801E04FF006084FEA83794FEA197966
:101F400008FA09F848EA0505DFF850814FEA9309D5
:101F500048F82950D1F8048008F48018B8F5801F9B
:101F60000BD1DFF83C81D8F8008048EA0008DFF8A0
:101F70003091C9F800800AE075E0DFF82481D8F8D4
:101F8000008028EA0008DFF81891C9F80080D1F82D
:101F9000048008F40018B8F5001F0ED1DFF80081A6
:101FA00008F10408D8F8008048EA0008DFF8F0904B
:101FB00009F10409C9F800800DE0DFF8E48008F1B8
:101FC0000408D8F8008028EA0008DFF8D49009F166
:101FD0000409C9F80080D1F8048008F40038B8F585
:101FE000003F0ED1DFF8B880A8F10408D8F80080CF
:101FF00048EA0008DFF8A890A9F10409C9F80080B0
:102000000DE0DFF89C80A8F10408D8F8008028EAE9
:102010000008DFF88C90A9F10409C9F80080D1F814
:10202000048008F48038B8F5803F0ED1DFF8708066
:10203000A8F10808D8F8008048EA0008DFF86090A6
:10204000A9F10809C9F800800DE0DFF85480A8F173
:102050000808D8F8008028EA0008DFF84490A9F1C1
:102060000809C9F800805B1CD1F8008028FA03F841
:10207000B8F1000F7FF47CAEBDE8F88700001110C6
:102080000010024000080140000C01400010014017
:102090000014014000180140001C014008000140EC
:1020A00008040140024693680B400BB1012000E098
:1020B000002070470AB1016101E00B040361704721
:1020C00001480068704700000000002010B5044679
:1020D0000CB9012010BD94F8410028B9002084F803
:1020E0004000204601F040FC242084F84100206894
:1020F000C06820F400502168C860204602F090FCBF
:102100002068006920F490402168086120684069D7
:1021100020F02200216848612068406940F00800F2
:10212000216848612068C06840F400502168C86098
:1021300000206064202084F8410084F842000020E0
:10214000606300BFC6E700000348006803490978E0
:102150000844014908607047000000200800002082
:1021600010B50848006840F01000064908600320D8
:1021700000F0ACF8002000F007F800F02BF8002089
:1021800010BD00000020024070B504460E480078E3
:102190004FF47A71B1FBF0F00C490968B1FBF0F52E
:1021A000284600F0FDFB08B1012070BD102C07D2BD
:1021B00000222146501E00F04BF80548046001E063
:1021C0000120F2E70020F0E7080000200C000020CA
:1021D0000400002008B500BF1348806940F00100EA
:1021E000114988610846806900F00100009000BF35
:1021F00000BF00BF0846C06940F08050C861084673
:10220000C06900F08050009000BF00BF042000F0C3
:102210005DF800BF0549486820F0E06040F00070BC
:10222000486000BF08BD00000010024000000140EF
:1022300001460846002809DB00F01F0301229A40EE
:1022400043099B0003F1E023C3F8002100BF70475E
:102250002DE9F05F80460D461646002702F00AFD84
:10226000074639462A46334601F00700C0F1070AFF
:10227000BAF1040F02D94FF0040A01E0C0F1070AD5
:10228000D14600F1040ABAF1070F02D24FF0000A5A
:1022900001E0A0F1030AD4464FF0010A0AFA09FA54
:1022A000AAF1010A0AEA020A0AFA0CFA4FF0010B33
:1022B0000BFA0CFBABF1010B0BEA030B4AEA0B0424
:1022C0002146404602F0DEFCBDE8F09F00BF00F072
:1022D0000702064B19684FF6FF031940044B0B43E6
:1022E00043EA0221014B196000BF70470CED00E08A
:1022F0000000FA0570B504460D460CB9012070BD0A
:102300005A48006800F00700A8420ED257480068FB
:1023100020F007002843554908600846006800F08F
:102320000700A84201D00120E9E7207800F0020070
:1023300002281DD1207800F00400042805D14C4863
:10234000406840F4E0604A494860207800F00800A6
:10235000082805D14648406840F460504449486028
:102360004348406820F0F000A168084340494860B5
:10237000207800F0010078B36068012806D13C485D
:10238000006800F4003090B90120B8E760680228C6
:1023900006D13748006800F0007040B90120AEE770
:1023A0003348006800F0020008B90120A7E7304870
:1023B000406820F00300616808432D494860FFF73A
:1023C0007FFE064609E0FFF77BFE801B41F2883165
:1023D000884202D9032092E707E02548406800F0D0
:1023E0000C006168B0EB810FEDD12048006800F06F
:1023F0000700A8420ED91D48006820F007002843B6
:102400001A4908600846006800F00700A84201D099
:10241000012074E7207800F00400042807D1144854
:10242000406820F4E060E168084311494860207882
:1024300000F00800082808D10D48406820F46050DA
:10244000216940EAC1000A49486000F03FF80849A4
:102450004968C1F30311074A515CC8400649086046
:1024600006480068FFF790FE002048E70020024081
:1024700000100240666100080C00002004000020EB
:1024800001480068704700000C00002000B5FFF70D
:10249000F7FF04494968C1F30221034A515CC8406F
:1024A00000BD0000001002407661000800B5FFF793
:1024B000E7FF04494968C1F3C221034A515CC8409F
:1024C00000BD0000001002407661000870B50021D8
:1024D0000022002400230020134D696801F00C0540
:1024E000F5B1042D02D0082D19D101E00F4819E0F3
:1024F0000F4DC1F38346AB5D01F4803555B10A4DF4
:102500006D68C5F340450B4E725D084D5D43B5FBEC
:10251000F2F402E0084D03FB05F4204602E000BFA0
:10252000024800BF00BF70BD0010024000127A00D8
:10253000546100086461000800093D00F8B50446D4
:102540000CB90120F8BD207800F00100002878D0F7
:10255000F848406800F00C0004280CD0F5484068AA
:1025600000F00C00082811D1F248406800F48030D7
:10257000B0F5803F0AD1EF48006800F40030002831
:102580005FD0606800285CD10120DBE700BF606895
:10259000B0F5803F06D1E748006840F48030E54957
:1025A000086028E0606858B9E248006820F480308C
:1025B000E04908600846006820F4802008601AE0BE
:1025C0006068B0F5A02F0BD1DA48006840F4802095
:1025D000D84908600846006840F4803008600AE086
:1025E000D448006820F48030D2490860084600686A
:1025F00020F48020086000BF606888B1FFF760FDAC
:10260000054606E0FFF75CFD401B642801D9032066
:1026100098E7C848006800F400300028F2D010E0C5
:10262000FFF74EFD054606E0FFF74AFD401B642814
:1026300001D9032086E7BF48006800F40030002875
:10264000F2D1207800F00200022857D1B948406842
:1026500000F00C0050B1B748406800F00C000828AA
:1026600018D1B448406800F4803098B9B148006887
:1026700000F0020020B12069012801D0012061E7AB
:10268000AC48006820F0F800616940EAC100A9493F
:10269000086033E02069E8B10120A7490860FFF72E
:1026A0000FFD054606E0FFF70BFD401B022801D990
:1026B000032047E79F48006800F002000028F2D09E
:1026C0009C48006820F0F800616940EAC10099491F
:1026D000086013E0002098490860FFF7F1FC054608
:1026E00006E0FFF7EDFC401B022801D9032029E793
:1026F0009048006800F002000028F2D1207800F035
:10270000080008282DD1A069B8B101208B490860C4
:10271000FFF7D6FC054606E0FFF7D2FC401B022877
:1027200001D903200EE78348406A00F00200002828
:10273000F2D0012001F0A8FE13E000207F490860DC
:10274000FFF7BEFC054606E0FFF7BAFC401B022877
:1027500001D90320F6E67748406A00F0020000281D
:10276000F2D1207800F00400042873D100277148CA
:10277000C06900F0805070B900BF6E48C06940F079
:1027800080506C49C8610846C06900F080500090D4
:1027900000BF00BF01276A48006800F48070B0B92C
:1027A0006748006840F4807065490860FFF788FC5E
:1027B000054606E0FFF784FC401B642801D903208E
:1027C000C0E65F48006800F480700028F2D000BFC7
:1027D000E068012806D15748006A40F001005549D9
:1027E000086227E0E06858B95248006A20F001000A
:1027F000504908620846006A20F00400086219E0A7
:10280000E06805280BD14B48006A40F004004949B4
:1028100008620846006A40F0010008620AE0454884
:10282000006A20F00100434908620846006A20F06F
:102830000400086200BFE068A0B1FFF741FC054654
:1028400009E0FFF73DFC401B41F28831884202D984
:10285000032077E622E03748006A00F002000028F3
:10286000EFD012E0FFF72CFC054608E0FFF728FC4C
:10287000401B41F28831884201D9032062E62D488D
:10288000006A00F002000028F0D1012F05D129488C
:10289000C06920F080502749C86100BFE069C8B313
:1028A0002448406800F00C00082860D0E069022845
:1028B00048D1002020490866FFF702FC054606E0E3
:1028C000FFF7FEFB401B022801D903203AE6194816
:1028D000006800F000700028F2D1206AB0F5803F57
:1028E00007D11448406820F40030A168084311491A
:1028F0004860D4E9080108430E49496821F474117D
:1029000008430C49486001200B490866FFF7D8FBD3
:10291000054607E03DE0FFF7D3FB401B022801D945
:1029200003200FE60348006800F000700028F2D092
:102930002FE00000001002400000424280044242AA
:1029400000700040002014490866FFF7B9FB0546F7
:1029500006E0FFF7B5FB401B022801D90320F1E593
:102960000E48006800F000700028F2D111E0E06924
:10297000012800D1E6E50948466806F48031206A5E
:10298000814204D106F47011606A814201D00120B5
:10299000D8E50020D6E500000000424200100240C9
:1029A00070B504462546681EB0F1807F01D3012032
:1029B0000FE0681E4FF0E02148610F214FF0FF301B
:1029C00002F060F900204FF0E021886107200861E3
:1029D000002070BD7047704710B50346002200BF4D
:1029E00093F83C00012801D1022010BD012083F89A
:1029F0003C0000BF22F0FF00CC6840EA040222F451
:102A000040708C6840EA040222F480604C6840EA1E
:102A1000040222F400600C6840EA040222F48050B0
:102A20000C6940EA040222F400504C6940EA0402B6
:102A300022F48040CC6940EA04021868426400BF76
:102A4000002083F83C0000BF00BFCEE730B502464F
:102A50000B4600BF92F83C00012801D1022030BD96
:102A6000012082F83C0000BF022082F83D0010687F
:102A700044681068816824F0700418680443106882
:102A80004460144D1068A84213D0134D1068A8423A
:102A90000FD01068B0F1804F0BD0104D1068A842D5
:102AA00007D00F4D1068A84203D00E4D1068A84201
:102AB00005D121F080015868014310688160012030
:102AC00082F83D0000BF002082F83C0000BF00BF3C
:102AD000C5E70000002C0140003401400004004024
:102AE00000080040000C004010B504460CB901205D
:102AF00010BD94F83D0028B9002084F83C00204621
:102B000000F026F8022084F83D00211D206801F025
:102B100031FD012084F8460000BF84F83E00012109
:102B20003F200155402001554120015500BF00BF05
:102B3000012084F8420043200155442001554520DE
:102B4000015500BF012084F83D000020D0E70000BF
:102B500038B504461F49206888420DD100BF1E4881
:102B6000C06940F010001C49C8610846C06900F007
:102B70001000009000BF2CE018492068884216D150
:102B800000BF1548C06940F020001349C8610846DD
:102B9000C06900F02000009000BF00BF0122114674
:102BA0003720FFF755FB3720FFF742FB11E00C49B8
:102BB000206888420DD100BF0748806940F400506A
:102BC000054988610846806900F40050009000BF04
:102BD00000BF38BD0010004000100240001400404B
:102BE00000340140014691F83D00012801D0012048
:102BF0007047022081F83D000868C06840F001007D
:102C00000B68D860164B0868984213D0154B0868BB
:102C100098420FD00868B0F1804F0BD0124B086873
:102C2000984207D0114B0868984203D0104B0868AF
:102C300098420CD10868806800F00702062A0CD080
:102C40000868006840F001000B68186005E008683B
:102C5000006840F001000B6818600020C8E7000021
:102C6000002C0140003401400004004000080040F6
:102C7000000C00402DE9F04104460D46002700BF3E
:102C800094F83C00012802D10220BDE8F081012027
:102C900084F83C0000BF022084F83D00206886686C
:102CA00026F0770626F47F4620688660286850283C
:102CB00033D00CDC202850D004DC00284BD0102866
:102CC00051D149E0302849D040284CD139E0602822
:102CD0002DD0702807D0B0F5805F03D0B0F5005F2D
:102CE00041D10DE041E0D5E902136A68206801F0A6
:102CF000A8FC2068866846F077062068866034E085
:102D0000D5E902136A68206801F09BFC206880689E
:102D100040F480402168886027E0EA68696820689C
:102D200001F080FD5021206801F096FC1DE0EA686A
:102D30006968206801F089FD6021206801F08CFC41
:102D400013E0EA686968206801F06CFD40212068A2
:102D500001F082FC09E000BF00BF00BF29682068C5
:102D600001F07AFC01E0012700BF00BF012084F8D8
:102D70003D0000BF002084F83C0000BF384684E7D7
:102D80002DE9F04104460D4614B90120BDE8F0815B
:102D900094F83D0028B9002084F83C00204600F05B
:102DA00051F8022084F83D002068806844F2070151
:102DB000884321688860211D206801F0DBFB2068C2
:102DC000D0F80880206886692068076A286840EA89
:102DD000080840F203308643A969A86840EA012048
:102DE000064340F60C4086434FF2F0008643E96903
:102DF000E86840EA0120064328690001296A40EAA0
:102E00000130064327F022076969686840EA01102B
:102E100007432068C0F80880206886612068076240
:102E2000012084F8460084F83E0001213F2001552E
:102E3000012084F8420043200155012084F83D0020
:102E40000020A3E710B586B004460020029003904E
:102E5000049005902068B0F1804F4ED100BF7148BA
:102E6000C06940F001006F49C8610846C06900F0C0
:102E70000100019000BF00BF00BF0846806940F01C
:102E8000040088610846806900F00400019000BFDA
:102E900000BF00BF0846806940F00800886108460E
:102EA000806900F00800019000BF00BF4FF40040AF
:102EB000029000200390049002A95B48FEF752FFA5
:102EC0000820029000200390049002A95748FEF7C2
:102ED00049FF00BF5649486820F4407040F0E06068
:102EE00040F48070486000BF002202211C20FFF7E0
:102EF000AFF91C20FFF79CF991E04E492068884209
:102F00002CD100BF4748C06940F002004549C86164
:102F10000846C06900F00200019000BF00BF00BF7A
:102F20000846806940F0040088610846806900F026
:102F30000400019000BF00BFC02002900020039059
:102F4000049002A93848FEF70DFF002202211D203F
:102F5000FFF77EF91D20FFF76BF960E03649206826
:102F600088422CD100BF2F48C06940F004002D4991
:102F7000C8610846C06900F00400019000BF00BFAE
:102F800000BF0846806940F00800886108468069F3
:102F900000F00800019000BF00BFC0200290002098
:102FA0000390049002A92148FEF7DCFE00220221D2
:102FB0001E20FFF74DF91E20FFF73AF92FE01F49B9
:102FC000206888422BD100BF1648C06940F0080035
:102FD0001449C8610846C06900F00800019000BFAC
:102FE00000BF00BF0846806940F0040088610846C1
:102FF000806900F00400019000BF00BF0320029030
:1030000000200390049002A90748FEF7ABFE0022BF
:1030100002213220FFF71CF93220FFF709F906B030
:1030200010BD00000010024000080140000C0140EB
:10303000000001400004004000080040000C004077
:103040002DE9F04304460D4694F83E603F20075DAD
:1030500094F84280432010F804906DB9012E02D1FB
:10306000B8F1010F02D00120BDE8F083022084F8FE
:103070003E0084F8420025E0042D0CD1012F02D13E
:10308000B9F1010F01D00120EEE702213F200155E7
:103090004320015516E0012E07D1012F05D1B8F1CB
:1030A000010F02D1B9F1010F01D00120DCE70220AC
:1030B00084F83E0002213F200155022084F842009E
:1030C0004320015515B1042D0CD105E0012200214A
:1030D000206801F0A5FA10E001220421206801F027
:1030E0009FFA0AE001220021206801F099FA0122EA
:1030F0000421206801F094FA00BF00BF2068006836
:1031000040F00100216808600020ADE7704770B50D
:1031100004462068C5682068066906F00200022897
:1031200019D105F00200022815D1401F216808615D
:10313000012020772068806900F0030018B1204644
:10314000FFF7E4FF05E0204600F0C4F8204600F059
:1031500078F90020207706F00400042819D105F042
:103160000400042815D1C04321680861022020779B
:103170002068806900F4407018B12046FFF7C6FF50
:1031800005E0204600F0A6F8204600F05AF900209D
:10319000207706F00800082819D105F00800082853
:1031A00015D1C04321680861042020772068C069D8
:1031B00000F0030018B12046FFF7A8FF05E0204605
:1031C00000F088F8204600F03CF90020207706F057
:1031D0001000102819D105F01000102815D1C04397
:1031E00021680861082020772068C06900F44070D9
:1031F00018B12046FFF78AFF05E0204600F06AF884
:10320000204600F01EF90020207706F0010048B1AA
:1032100005F0010030B16FF001002168086120461F
:1032200000F08AF906F08000802809D105F08000BE
:10323000802805D1C043216808612046FFF7CAFBFA
:1032400006F04000402809D105F04000402805D193
:10325000C04321680861204600F0D4F906F0200040
:10326000202809D105F02000202805D1C04321687D
:1032700008612046FFF7AFFB70BD000010B586B0B7
:103280000446002002900390049005900E492068A7
:10329000884217D100BF0D48806940F010000B49EB
:1032A00088610846806900F01000019000BF00BFEF
:1032B0004FF47070029002200390059002A9044818
:1032C000FEF750FD06B010BD003401400010024072
:1032D0000010014070472DE9F04104460D461646A6
:1032E000002700BF94F83C00012802D10220BDE86D
:1032F000F081012084F83C0000BF36B1042E1BD0C1
:10330000082E31D00C2E5ED145E02946206801F010
:10331000ADF92068806940F0080021688861206864
:10332000806920F00400216888612068806929692B
:1033300008432168886148E02946206801F0CEF9F9
:103340002068806940F40060216888612068806995
:1033500020F480602168886120688069296940EADA
:1033600001202168886130E02946206801F0F4F9E5
:103370002068C06940F008002168C8612068C06901
:1033800020F004002168C8612068C06929690843E9
:103390002168C86119E02946206801F019FA2068FF
:1033A000C06940F400602168C8612068C06920F4E9
:1033B00080602168C8612068C069296940EA0120ED
:1033C0002168C86101E0012700BF00BF00BF0020E5
:1033D00084F83C0000BF384689E710B504460CB9B4
:1033E000012010BD94F83D0028B9002084F83C006D
:1033F000204600F025F8022084F83D00211D2068B9
:1034000001F0B8F8012084F8460000BF84F83E00BF
:1034100001213F200155402001554120015500BFA9
:1034200000BF012084F8420043200155442001558B
:103430004520015500BF012084F83D000020D0E761
:103440007047704770B504460D4615B994F83E00B4
:103450000BE0042D02D13F20005D06E0082D02D1D3
:103460004020005D01E04120005D012801D00120E5
:1034700070BD1DB9022084F83E000EE0042D03D17A
:1034800002213F20015508E0082D03D102214020F0
:10349000015502E002214120015501222946206800
:1034A00001F0BEF81F492068884203D01E492068F9
:1034B000884201D1012000E0002028B12068406C42
:1034C00040F400402168486416492068884213D0BF
:1034D0001549206888420FD02068B0F1804F0BD08A
:1034E00012492068884207D011492068884203D0D9
:1034F0001049206888420CD12068806800F00706D7
:10350000062E0CD02068006840F001002168086099
:1035100005E02068006840F0010021680860002094
:10352000A6E70000002C01400034014000040040E8
:1035300000080040000C004070B505462C49286882
:10354000884200D070BD2B480078062802DB00209E
:10355000284908702848007820BB00BF2549097811
:1035600001EB8101254A02EB8101486802F0F8FB7A
:1035700023490968C8621F49097801EB81011F4A84
:1035800002EB8101486802F0EBFB1D49C86000BFF7
:1035900001211848007802F0AFF81648007802F0D0
:1035A0002FF81DE01349097801EB8101134A02EB62
:1035B0008101486802F0D4FB40F6C4110C1A00BF28
:1035C0000F480068C4620E48C46000BF002109486B
:1035D000007802F091F807480078401C054908700F
:1035E0000548007880F001000349087000BFA9E792
:1035F000001400401100002010000020BC03002037
:10360000AC01002070477047704700002DE9F84F6B
:103610000446206805682068C668206847694FF03E
:103620000009CA4605F00F09B9F1000F0AD105F0EB
:10363000200038B106F0200020B1204601F072F9D8
:10364000BDE8F88FB9F1000F7BD007F0010018B981
:1036500006F49070002874D005F0010030B106F433
:10366000807018B1606C40F00100606405F00400E7
:1036700030B107F0010018B1606C40F002006064E6
:1036800005F0020030B107F0010018B1606C40F0A5
:103690000400606405F0080048B106F0200010B98D
:1036A00007F0010018B1606C40F008006064606CC5
:1036B000002845D005F0200028B106F0200010B108
:1036C000204601F02FF920684069C0F3801A606C31
:1036D00000F0080010B9BAF1000F2CD0204601F01C
:1036E000DBF82068406900F0400000B300BF00BF75
:1036F0002168143151E8001F21F040002168143185
:1037000041E80002002AF3D100BFE06B50B17748D6
:10371000E16B4863E06BFEF73DFA88B1E06B416B0B
:1037200088470DE02046FFF76FFF09E009E02046DB
:10373000FFF76AFF04E02046FFF766FF00206064A1
:103740007EE7206B012877D105F01000002873D0A8
:1037500006F010000028FAD000BF0020009020687A
:103760000068009020684068009000BF00BF20689B
:10377000406900F0400000285FD0E06B00684068BE
:103780001FFA80F8B8F1000F55D0A08D404552DDEA
:10379000A4F82E80E06B8069202843D000BF00BFD2
:1037A00021680C3151E8001F21F4807021680C3130
:1037B00041E80002002AF3D100BF00BF00BF21682A
:1037C000143151E8001F21F001002168143141E853
:1037D0000002002AF3D100BF00BF00BF21681431EE
:1037E00051E8001F21F040002168143141E8000237
:1037F000002AF3D100BF202084F84200002020637B
:1038000000BF00BF21680C3151E8001F21F01000FB
:1038100021680C3141E80002002AF3D100BFE06BBF
:10382000FEF78DF902206063A08DE28D801A81B2CF
:103830002046FFF7E8FE03E742E0A08DE18D401A45
:103840001FFA80F8E08DD0B3B8F1000F37D000BF79
:1038500000BF21680C3151E8001F21F490702168ED
:103860000C3141E80002002AF3D100BF00BF00BFC5
:103870002168143151E8001F21F001002168143142
:1038800041E80002002AF3D100BF202084F8420062
:103890000020206300BF00BF21680C3151E8001FE9
:1038A00021F0100021680C3141E80002002AF3D118
:1038B00000BF0220606341462046FFF7A4FEBFE63A
:1038C00005F0800030B106F0800018B1204601F00C
:1038D00025F9B5E605F0400030B106F0400018B11A
:1038E000204601F00FF8ABE600BFA9E685480008C6
:1038F00010B504460CB9012010BDA06900B100E06C
:1039000000BF94F8410028B9002084F84000204608
:1039100000F02AF8242084F841002068C06820F4D0
:1039200000502168C860204601F07AF820680069DC
:1039300020F49040216808612068406920F02A0046
:10394000216848612068C06840F400502168C86060
:1039500000206064202084F8410084F842000020A8
:10396000606300BFC8E7000010B586B004460020C1
:1039700002900390049005907249206888422DD1EE
:1039800000BF7148C06940F480106F49C8610846A3
:10399000C06900F48010019000BF00BF00BF08465E
:1039A000806940F0100088610846806900F01000CE
:1039B000019000BF00BF88140290122003900320E2
:1039C000059002A96148FEF7CDF9002201213520BA
:1039D000FEF73EFC3520FEF72BFCB1E05C49206889
:1039E000884237D100BF5848806940F4804056492A
:1039F00088610846806900F48040019000BF00BFE4
:103A000000BF0846806940F004008861084680696C
:103A100000F00400019000BF00BF48150290022092
:103A200003900320059002A94A48FEF79BF94FF442
:103A30008060029000200390049002A94548FEF7A0
:103A400091F9002201212520FEF702FC2520FEF736
:103A5000EFFB75E040492068884236D100BF3A4804
:103A6000C06940F400303849C8610846C06900F4B4
:103A70000030019000BF00BF00BF0846806940F0E1
:103A8000040088610846806900F00400019000BFCE
:103A900000BF04200290022003900320059002A999
:103AA0002C48FEF75FF90820029000200390049054
:103AB00002A92848FEF756F9002201212620FEF728
:103AC000C7FB2620FEF7B4FB3AE024492068884271
:103AD00036D100BF1C48C06940F480201A49C86133
:103AE0000846C06900F48020019000BF00BF00BFFD
:103AF0000846806940F0080088610846806900F047
:103B00000800019000BF00BF08150290022003903A
:103B10000320059002A91248FEF724F94FF4006033
:103B2000029000200390049002A90D48FEF71AF9B4
:103B3000002201212720FEF78BFB2720FEF778FBD0
:103B400006B010BD005000400010024000100140BF
:103B50000038014000080140004400400048004097
:103B6000000C014070472DE9F84F04460E461746F9
:103B700099464FF0000A94F84100202850D106B130
:103B800017B90120BDE8F88F00206064212084F877
:103B90004100FEF795FA8246A784E784A068B0F555
:103BA000805F04D1206910B90025B04602E0354697
:103BB0004FF000081EE05346002280212046CDF839
:103BC000009000F0DBFF20B1202084F841000320AA
:103BD000D8E745B9B8F80000C0F30800216848608C
:103BE00008F1020803E02878216848606D1CE08C29
:103BF000401EE084E08C0028DDD1534600224021A5
:103C00002046CDF8009000F0B9FF20B1202084F8C4
:103C100041000320B6E7202084F841000020B1E7EE
:103C20000220AFE7704700BFFEE7000002490878B6
:103C30000021014A117070471F00002010B50121BA
:103C40000148FEF72FFA10BD0008014010B5FFF73C
:103C5000F5FF04464048007884420DD03F48007884
:103C6000401C3E49087008460078032807DB3A48A4
:103C700004700020087002E00020384908703848BD
:103C8000007820B1012821D002285FD14DE03248D0
:103C9000007828B901203249087000203149088095
:103CA00031480078002810DD30480088401C2F493A
:103CB0000880084600881E2807DB01202C49087070
:103CC0000020294908702949088043E022480078EB
:103CD00060B924480088401C2249088008460088B2
:103CE000642821DB02201E4908701DE01D48008861
:103CF000642814DA1C480078401C1B4908700846E8
:103D00000078022808DB02201949087000201649B3
:103D100008701649088002E000201449088000203D
:103D20000F4908700F49088014E00B4800780128FB
:103D30000BD103200E490870002009490870094979
:103D40000880094908700949088003E000200449F7
:103D5000087000BF00BF10BD21000020200000201F
:103D6000180000201A0000201E0000201C00002067
:103D70001F00002000B585B0002001900290039044
:103D8000049000BF3748806940F0200035498861C1
:103D90000846806900F02000009000BF00BF00BF0F
:103DA0000846806940F0040088610846806900F098
:103DB0000400009000BF00BF00BF0846806940F0CB
:103DC000080088610846806900F00800009000BF84
:103DD00000BF00BF0846806940F0100088610846B7
:103DE000806900F01000009000BF00BF00224FF477
:103DF00088511D48FEF75EF900224FF480611B4890
:103E0000FEF758F901224FF440711948FEF752F9B4
:103E10004FF488500190012002900020039002206E
:103E2000049001A91048FDF79DFF4FF480600190B8
:103E300001200290002003900220049001A90B4869
:103E4000FDF790FF4FF44070019011200290012087
:103E500003900220049001A90548FDF783FF05B0F7
:103E600000BD0000001002400008014000100140A9
:103E7000000C014000B58BB0242102A8FCF7CBFA5E
:103E80000020009001904FF0804019490860002008
:103E900048600021164881604FF6FF71C160002123
:103EA00001618161032002900020039001200490B1
:103EB000002005900A20069000200790012008901D
:103EC000002009900A200A9002A90948FEF758FF2D
:103ED00008B1FDF731FE00200090019069460448CA
:103EE000FEF7B4FD08B1FDF727FE0BB000BD0000E2
:103EF0004400002000B58BB0242102A8FCF78BFA07
:103F0000002000900190194819490860002048607D
:103F10000021174881604FF6FF71C16000210161E7
:103F20008161032002900020039001200490002072
:103F300005900A200690002007900120089000209C
:103F400009900A200A9002A90948FEF719FF08B152
:103F5000FDF7F2FD00200090019069460448FEF74D
:103F600075FD08B1FDF7E8FD0BB000BD0004004091
:103F70008C00002000B58BB0242102A8FCF74BFA7E
:103F800000200090019019481949086000204860FD
:103F90000021174881604FF6FF71C1600021016167
:103FA00081610320029000200390012004900020F2
:103FB00005900A200690002007900120089000201C
:103FC00009900A200A9002A90948FEF7D9FE08B113
:103FD000FDF7B2FD00200090019069460448FEF70D
:103FE00035FD08B1FDF7A8FD0BB000BD000800408D
:103FF000D400002000B58BB0242102A8FCF70BFAF6
:10400000002000900190194819490860002048607C
:104010000021174881604FF6FF71C16000210161E6
:104020008161032002900020039001200490002071
:1040300005900A200690002007900120089000209B
:1040400009900A200A9002A90948FEF799FE08B1D2
:10405000FDF772FD00200090019069460448FEF7CC
:10406000F5FC08B1FDF768FD0BB000BD000C004089
:104070001C0100201CB50020009001900D480E4945
:1040800008604720486000210B4881600921C16019
:1040900000218161FEF728FD08B1FDF74DFD0020EC
:1040A0000090019069460448FEF7D0FC08B1FDF786
:1040B00043FD1CBD00140040AC01002000B595B0CC
:1040C000002011901290139014900F9010901C21CA
:1040D00008A8FCF7A0F920216846FCF79CF93748AE
:1040E000374908600120486000213548816040F26E
:1040F000CF71C1600021016141618161FEF7F4FC73
:1041000008B1FDF719FD4FF48050119011A92C480A
:10411000FEF7B0FD08B1FDF70FFD2948FFF75DF987
:1041200008B1FDF709FD00200F9010900FA9244859
:10413000FEF78CFC08B1FDF7FFFC60200890002022
:1041400009900A900B900C900D900E90002208A9F7
:104150001B48FFF7C0F808B1FDF7EEFC042208A9E0
:104160001748FFF7B8F808B1FDF7E6FC082208A9E0
:104170001348FFF7B0F808B1FDF7DEFC0C2208A9E0
:104180000F48FFF7A8F808B1FDF7D6FC0020009013
:1041900001900290039004904FF40050059000208D
:1041A000079069460648FEF717FC08B1FDF7C4FC06
:1041B0000348FFF763F815B000BD0000003401406C
:1041C000F401002010B50B480B4908604FF4E130B2
:1041D0004860002108488160C16001610C21416193
:1041E00000218161C161FDF771FF08B1FDF7A4FCF9
:1041F00010BD0000005000403C02002010B50B48EC
:104200000B4908604FF4E1304860002108488160A4
:10421000C16001610C21416100218161C161FFF731
:1042200067FB08B1FDF788FC10BD000000380140B5
:104230008402002010B50B480B4908604FF4E130B0
:104240004860002108488160C16001610C21416122
:1042500000218161C161FFF74BFB08B1FDF76CFCE8
:1042600010BD000000440040CC02002010B50B48F7
:104270000B4908604FF4E130486000210848816034
:10428000C16001610C21416100218161C161FFF7C1
:104290002FFB08B1FDF750FC10BD000000480040A6
:1042A0001403002000BFFEE700BFFEE770B5002446
:1042B0000EE00021204600F069F8002504E000200F
:1042C00000F0CAF8681CC5B2802DF8DB601CC4B2CF
:1042D000082CEEDB70BD10B56420FDF72FFDAE207D
:1042E00000F0A4F8202000F0A1F8022000F09EF8D1
:1042F000B02000F09BF8C82000F098F8002000F0F3
:1043000095F8102000F092F8402000F08FF88120FE
:1043100000F08CF8FF2000F089F8A12000F086F86A
:10432000A62000F083F8A82000F080F83F2000F0DD
:104330007DF8A42000F07AF8D32000F077F8002070
:1043400000F074F8D52000F071F8F02000F06EF85D
:10435000D92000F06BF8222000F068F8DA2000F095
:1043600065F8122000F062F8DB2000F05FF82020F2
:1043700000F05CF88D2000F059F8142000F056F899
:10438000AF2000F053F8FFF791FF10BD70B5054660
:104390000C4605F1B001C8B200F048F804F00F0077
:1043A00000F044F8102101EB141000F03FF870BD4C
:1043B0002DE9F0410746884615462E46202E01DBA2
:1043C0007E2E00DD202641463846FFF7DFFF002421
:1043D0000BE0A6F1200101EB4101064A02EB41018D
:1043E000085D00F039F8601CC4B2062CF1DBBDE8B2
:1043F000F08100007E61000870B505460E46144647
:104400000FE07A2E02DD0026681CC5B2072D00DD04
:104410000AE0227831462846FFF7CAFFB01DC6B22F
:10442000641C20780028ECD100BF70BD10B5044694
:1044300000F02EFD782000F08BFD00F05FFD0020E5
:1044400000F086FD00F05AFD204600F081FD00F0EE
:1044500055FD00F03BFD10BD10B5044600F018FD01
:10446000782000F075FD00F049FD402000F070FD5F
:1044700000F044FD204600F06BFD00F03FFD00F031
:1044800025FD10BD7047000008B508490968C90836
:104490004FF47A72B1FBF2F14143009100BF00BFCB
:1044A00000994A1E00920029F9D108BD0C00002095
:1044B000704710B5FDF748FE10BD00B58FB028213C
:1044C00005A8FBF7A8FF14216846FBF7A4FF01200D
:1044D000059000040690002007900120099002201A
:1044E0000C90C1030D914FF4E0110E9105A8FEF759
:1044F00025F808B1FDF720FB0F2000900220019065
:10450000002002904FF4806003900020049002216C
:104510006846FDF7EFFE08B1FDF70EFB0FB000BDDA
:104520007047000010B50248FEF7F1FD10BD000015
:104530004400002010B50248FEF7E9FD10BD000060
:104540008C00002010B50248FEF7E1FD10BD000010
:10455000D400002010B50248FEF7D9FD10BD0000C0
:104560001C01002010B50248FEF7D1FD10BD00006F
:10457000AC01002010B50268244B98420ED0244BA9
:1045800098420BD0B0F1804F08D0224B984205D012
:10459000214B984202D0214B984203D122F0700265
:1045A0004B681A43194B98420ED0194B98420BD0C6
:1045B000B0F1804F08D0174B984205D0164B984267
:1045C00002D0164B984203D122F44072CB681A43B2
:1045D00022F080034C6943EA040202608B68C362E4
:1045E0000B688362094B984202D0094B984201D173
:1045F0000B69036301234361036903F001031BB1EA
:10460000036923F00103036110BD0000002C014089
:10461000003401400004004000080040000C00404D
:1046200030B501F01F05012404FA05F3046A9C4328
:104630000462046A01F01F0502FA05F52C430462C6
:1046400030BD30B50C46816821F47F4142EA032534
:1046500025432943816030BD0A46816821F07001FD
:1046600042F00703194381607047000030B5026AC9
:10467000056A25F0010505624368846924F0700429
:1046800024F003040D682C4322F002028D682A43B3
:10469000104DA84200D103E00F4DA84206D100BF43
:1046A00022F00802CD682A4322F00402094DA842F4
:1046B00002D0094DA84207D123F4807323F400737C
:1046C0004D692B438D692B43436084614D6845637D
:1046D000026230BD002C01400034014030B5026A56
:1046E000056A25F0100505624368846924F4E044F6
:1046F00024F440740D6844EA052422F020028D68F9
:1047000042EA0512124DA84200D103E0114DA84221
:1047100007D100BF22F08002CD6842EA051222F0E4
:1047200040020B4DA84202D00A4DA84209D123F401
:10473000806323F400634D6943EA85038D6943EA8E
:104740008503436084614D688563026230BD00006B
:10475000002C01400034014030B5026A056A25F49E
:10476000807505624368C46924F0700424F0030472
:104770000D682C4322F400728D6842EA0522124D26
:10478000A84200D103E0114DA84207D100BF22F496
:104790000062CD6842EA052222F480620A4DA842F6
:1047A00002D00A4DA84209D123F4805323F40053C8
:1047B0004D6943EA05138D6943EA05134360C461FB
:1047C0004D68C563026230BD002C014000340140D9
:1047D00030B5036A056A25F4805505624468C269EC
:1047E00022F4E04222F440720D6842EA052223F4EA
:1047F00000538D6843EA0533084DA84202D0084DA6
:10480000A84204D124F480444D6944EA85144460EC
:10481000C2614D680564036230BD0000002C014098
:104820000034014030B50B461446026A056A25F093
:1048300001050562816921F0F00141EA041122F0CD
:104840000A021A438161026230BD30B50B4614463C
:10485000026A056A25F010050562816921F470413C
:1048600041EA043122F0A00242EA031281610262AD
:1048700030BD000010B50248FEF7C8FE10BD0000B4
:104880003C02002070B505466C6A0020E085E0849B
:104890002046FEF7B9FE70BD00BF00BF02680C32B3
:1048A00052E8002F22F4907102680C3242E80013A3
:1048B000002BF3D100BF00BF00BF0268143252E8E2
:1048C000002F22F001010268143242E80013002B8D
:1048D000F3D100BF016B01290ED100BF00BF0268F8
:1048E0000C3252E8002F22F0100102680C3242E82C
:1048F0000013002BF3D100BF202180F842100021CB
:104900000163704710B504462068C06820F040007D
:104910002168C860202084F841002046FFF782F912
:10492000002010BDF8B5044694F84200222875D145
:10493000A068B0F5805F0CD1206950B90025A66A47
:1049400020684068C0F308003080A06A801CA06224
:1049500015E0A56A0026A068B0F5805F03D0A068C6
:1049600028B9206918B920684068287004E02068D8
:10497000406800F07F002870A06A401CA062E08DB3
:10498000401E80B2E085002846D12068C06820F033
:1049900020002168C8602068C06820F48070216809
:1049A000C8602068406920F001002168486120202B
:1049B00084F8420000206063206B012826D100208B
:1049C000206300BF00BF21680C3151E8001F21F0B7
:1049D000100021680C3141E80002002AF3D100BF29
:1049E0002068006800F0100010280AD100BF0020E5
:1049F000009020680068009020684068009000BF28
:104A000000BFA18D2046FEF7FEFD02E02046FFF725
:104A1000A9F80020F8BD01E00020FBE70220F9E73B
:104A200070B504462168096921F44051E2681143D8
:104A3000226811612269A1681143626941EA020595
:104A40002168C96841F20C62914329432268D16010
:104A50002168496921F44071A269114322685161BA
:104A60002D4A2168914202D1FDF720FD01E0FDF7BA
:104A70000DFD00EBC00101EB001162689200B1FB7B
:104A8000F2F100EBC00202EB001263689B00B2FB84
:104A9000F3F26423B2FBF3F202EBC20303EB021264
:104AA000A1EB8201322202EB01116422B1FBF2F18F
:104AB00001F0F00100EBC00202EB001263689B0002
:104AC000B2FBF3F26423B2FBF3F201EB021200EB50
:104AD000C00101EB001163689B00B1FBF3F100EB37
:104AE000C00303EB00136668B600B3FBF6F364265D
:104AF000B3FBF6F303EBC30606EB0313A1EB830151
:104B0000322303EB01116423B1FBF3F101F00F0138
:104B100011442268916070BD00380140014691F84F
:104B20004100212828D18868B0F5805F0BD1086941
:104B300048B90A6A1088C0F308000B685860086A10
:104B4000801C086205E00B6A581C086218780B6824
:104B50005860C88C401E80B2C88458B90868C068C4
:104B600020F080000B68D8600868C06840F0400002
:104B70000B68D860002070470220FCE72DE9F8435D
:104B800004460D4617469846089E31E0701C70B3E7
:104B9000FDF796FAA0EB0800B04200D816B9032042
:104BA000BDE8F8832068C06800F00400F8B1802DEB
:104BB0001ED0402D1CD020680068C0F3C000B0B1EA
:104BC00000BF0020009020680068009020684068C6
:104BD000009000BF00BF2046FFF75EFE0820606423
:104BE00000BF002084F8400000BF0120D8E7FFE7A5
:104BF000206800682840A84201D1012000E0002080
:104C0000B842C3D00020CBE710B50948006800685F
:104C1000C0F3401040B1064800684068C4B20121AA
:104C2000204600F0EBFD00BF0148FEF7EFFC10BD91
:104C30008402002010B50248FEF7E8FC10BD000019
:104C4000CC02002010B5094800680068C0F340108D
:104C500040B1064800684068C4B20321204600F015
:104C6000CDFD00BF0148FEF7D1FC10BD14030020AC
:104C700000BFFEE702480068C0F302207047000052
:104C80000CED00E010B5002804DB0A07130E054AFE
:104C9000135406E00A07140E034A00F00F031B1F0B
:104CA000D45410BD00E400E018ED00E040F2013201
:104CB00000204FF0E04101F001BA0000024A00205C
:104CC000110701F0FBB9000001FDFFFF10B504461C
:104CD000D1E9000100F002F8206010BDF8B50446EB
:104CE0000D466A4600F09CF800987E30009000283F
:104CF0001EDC002213462046294600F077FE17D01E
:104D0000002140F608004FF00000064620462946E4
:104D100000F026FE044640F6080006EA00014FF0C7
:104D2000000034F0004004BF0220FBF7A3FB29E0A1
:104D30000098FF2828DB002108464FF0000000F40F
:104D40004006002213462046294600F015FF8CBF7E
:104D5000002501250220FBF78DFB4FF0FF4446B1F3
:104D6000002D0CBF4FF400004FF48000B04218BF7C
:104D7000084C042108464FF00000002D04BF84F0C9
:104D80000040F8BD2046F8BD20462946BDE8F84061
:104D900000F0E6BDFFFF7F7F10B504460A46D4E968
:104DA0000003194600F008F9C4E9000110BD3038CD
:104DB0000A2801D2012070470020704710B500F08A
:104DC000C3FAFCF79FFE10BD08480068C06840F0B9
:104DD000200006490968C86005480068C06840F0BE
:104DE000200003490968C860704700008402002061
:104DF0001403002030B583B00446FBF736FB0546AC
:104E00000020CDE90000024621466846FBF7ECFB96
:104E10002846FBF72FFBDDE9000103B030BD0000A1
:104E200010B5144600222260114A21F0004393423B
:104E3000A8BF10BD53EA000208BF10BDB3F5801F24
:104E4000A8BF226807DA362201F038F96FF0350280
:104E500021F000432260DFF81CC06FF31E510CEB01
:104E600023531A4441F0FF5141F00051226010BD1C
:104E70000000F07F02FCFFFF08B50220009000BF99
:104E80009DF80000401EC0B200900028F8D108BD77
:104E900010B5012251020C48FDF70CF90122110254
:104EA0000948FDF707F9FFF7E7FF00224FF400710B
:104EB0000548FDF7FFF8FFF7DFFF00224FF4807190
:104EC0000148FDF7F7F810BD000C014010B50022B5
:104ED0004FF400710848FDF7EDF801221102064871
:104EE000FDF7E8F8FFF7C8FF012251020248FDF77D
:104EF000E1F8FFF7C1FF10BD000C014010B5002420
:104F0000012211021148FDF7D5F8012251020F4884
:104F1000FDF7D0F8FFF7B0FF09E0601C84B2FFF79F
:104F2000ABFF642C03D9FFF7D1FF012010BD4FF474
:104F300000710648FDF7B6F80128EED000224FF4C4
:104F400080710248FDF7B6F80020EFE7000C014041
:104F500070B5044600224FF480711648FDF7AAF898
:104F6000002523E004F0800028B1012251021148FD
:104F7000FDF7A0F805E000224FF400710D48FDF7A1
:104F800099F86006040EFFF777FF01221102094825
:104F9000FDF790F8FFF770FF00224FF4807105488D
:104FA000FDF788F8FFF768FF681CC5B2082DD9DB4C
:104FB00070BD0000000C01402DE9F04106460C4692
:104FC00040F2FF75174635EA14502BD000221346E5
:104FD000304600F00BFD25D03A463046214601F020
:104FE0006DF806460C4635EA145010D000221346E0
:104FF000304600F0FBFC15D10220FBF73BFAFFF72F
:105000005DFE0A46214662F31E01BDE8F0810220E2
:10501000FBF730FAFFF74AFE0A46214662F31E010B
:10502000BDE8F08130462146BDE8F08170470000C0
:1050300008B5FDF795F8FFF740FAFEF79BFEFEF77F
:1050400019FFFEF757FFFEF795FFFEF7D3FFFFF7B7
:1050500011F8FFF733F8FFF7B5F8FFF7CFF8FFF7D0
:10506000E9F8FFF703F9FFF7E1FFFFF7A7FE00F00C
:1050700071FA00F095FBFFF7A7FE0948094B0A4AB1
:105080000A4900900A4800F06BFBFCF791FC4FF4D2
:10509000FA70FCF753FE01E0FCF7C0FCFCE70000EF
:1050A0005C03002000001B430000B0420000D2421D
:1050B0000000C84210B588B0FFF7F8F819A20A211D
:1050C0000020FFF799F900241EE01A480078844276
:1050D00009D11948005D631C18A21621009002A88E
:1050E000FBF7AAF808E01448005D631C17A216211C
:1050F000009002A8FBF7A0F8A11CC8B202AA0021E8
:10510000FFF77AF9601CC4B2032CDEDB13A2002186
:105110000620FFF771F915A200210720FFF76CF9AF
:1051200008B010BD556E6C6F61642053657474696E
:105130006E67000028000020250000202D3E506FE3
:105140007325643A205B25635D0000002020506FCA
:105150007325643A2020256320000000436C6963B6
:105160006B3A4D6F766520506F73000044626C3A65
:10517000436867204C6F6E673A476F21000000005C
:10518000F0B587B00546012D04D0022D11D0032DB6
:1051900075D13CE050480078401C4F4908700846E3
:1051A0000078032801DB0020087001204B490870BB
:1051B0008EE04B49484A1278885C00F0F9F80446C2
:1051C000002619E0002700200BE0434909788842B7
:1051D00005D04349095CA14201D1012703E0411CEC
:1051E000C8B20328F1DB00BF07B907E0204600F092
:1051F000DFF80446701CC6B2032EE3DB00BF38485C
:1052000035490978445401203449087060E0FFF7BB
:105210004DF834A20A210220FFF7EEF830488078DA
:105220002F494978CDE900102D48037830A2142188
:1052300002A8FBF701F802AA0A210420FFF7DCF814
:105240002748807826494978CDE90010244803781A
:105250002BA2142102A8FAF7EFFF002407E002A80E
:1052600000F0ACFA3220FCF769FD601CC4B2052CDA
:10527000F5DB4FF4FA70FCF761FD002408E026E04E
:1052800023A000F09BFA3220FCF758FD601CC4B24A
:10529000052CF5DB1248807811494978CDE90010DA
:1052A0000F4803781CA216212048FAF7C5FF20A258
:1052B00016212248FAF7C0FF16A216212048FAF755
:1052C000BBFF01201F4908700449087000E000BFBF
:1052D00000BF07B0F0BD000028000020290000201A
:1052E000250000205374617274696E672E2E2E00A3
:1052F0004F726465723A20256325632563000000C0
:10530000234F726465723A2563256325632100008B
:1053100023476F21000000004F726465723A2563D5
:105320002D3E25632D3E2563000000002A0000204D
:1053300052756E6E696E672E2E2E000034050020A9
:105340004A0500202400002010B500210E48FEF779
:1053500079F804210C48FEF775F808210A48FEF791
:1053600071F80C210848FEF76DF80020064909681D
:10537000486305490968886303490968C8630249A5
:105380000968086410BD0000F401002010B5044C49
:105390002060044C2160044C2260044C236010BD4A
:1053A0008C03002098030020A4030020B0030020F9
:1053B0000146412904D0422904D0432906D103E003
:1053C000422070474320FCE74120FAE74120F8E7FC
:1053D0002DE9F05F834648A15846FAF7EBFF002815
:1053E00043D000250026A946AA4643A15846FAF70D
:1053F000E1FF441D2046FFF7FDFC074600F0B0FA30
:1054000005462C212046FAF7CBFF04463CB1641C2C
:105410002046FFF7EFFC074600F0A2FA06462C21D3
:105420002046FAF7BDFF04463CB1641C2046FFF756
:10543000E1FC074600F094FA81462C212046FAF759
:10544000AFFF04463CB1641C2046FFF7D3FC07467F
:1054500000F086FA824653464A4631462846FFF710
:1054600095FF27A000F0AAF944E027A15846FAF7D3
:10547000A1FF88B124A15846FAF79CFF84792346FE
:1054800023A216212548FAF7D7FE012024490870E7
:105490001BA000F093F92DE022A15846FAF78AFFED
:1054A00088B120A15846FAF785FF047A234620A246
:1054B00016211A48FAF7C0FE01201949087010A0F9
:1054C00000F07CF916E01EA15846FAF773FF48B1C8
:1054D00002201D49087001201149087008A000F041
:1054E0006DF907E019A15846FAF764FF10B104A05E
:1054F00000F064F9BDE8F09F244361723A000000B7
:10550000636D644F6B00000024477261623A0000D3
:10551000477261626265643A2025630034050020A9
:105520002900002024556E6C6F61643A0000000071
:10553000556E6C6F6164696E673A202563000000E8
:1055400024446F6E6521000024000020244B4D533D
:105550003A00000010B500241FE0134804EB84015A
:10556000124A42F8210004EB840102EB81014860F9
:10557000002004EB840102EB8101886041F2883055
:1055800004EB840102EB8101C860002004EB84017C
:1055900002EB81010861601CC4B2062CDDDB04480B
:1055A000FDF720FB10BD00000080BB44BC030020C1
:1055B000AC01002010B5FEF779FE0AA200210846D2
:1055C000FEF71AFF0B4A00210220FEF715FF0A4AD8
:1055D00000210420FEF710FF084A00210620FEF7F4
:1055E0000BFF10BD3D3D3D2052554E4E494E4720CC
:1055F0003D3D3D002A000020340500204A050020E2
:105600002DE9F041044604EB84013A4A02EB8101A2
:105610008868002100F054FB01D1BDE8F08104EB63
:105620008401344A02EB8101086900F0B9FB0746A6
:1056300004EB84002F4A52F82010384600F0D2FACA
:10564000064600F071FB054640F6BA118D4200DDBA
:105650000D46B5F5FA7F01DA4FF4FA75284600F0E9
:105660009FFB804604EB8400224A02EB80004168E5
:10567000404600F079FC074600F056FB064604EB76
:1056800084011C4A02EB810188684FF0804100F0E0
:105690009FFB20F00047384600F046FB002E01DB60
:1056A000314600E0714288420FDB284600F078FB6B
:1056B00004EB84010F4A02EB81014860002004EBF7
:1056C000840102EB8101886012E004EB8402094B43
:1056D00003EB8202916804EB840203EB82025068C0
:1056E00000F080FA04EB8401024A02EB8101486079
:1056F00000BF92E7BC03002070B504460D46062C9F
:1057000029D2DFE804F003090F151B212A460121E5
:105710001248FCF7CFFC1FE02A4602210F48FCF795
:10572000C9FC19E02A4604210C48FCF7C3FC13E02D
:105730002A4610210948FCF7BDFC0DE02A4620212D
:105740000648FCF7B7FC07E02A464FF4807103488F
:10575000FCF7B0FC00E000BF00BF70BD000C0140D2
:105760002DE9F04180460D4616461F46069C0B4922
:10577000404600F02DFB20600849284600F028FB39
:1057800060600649304600F023FBA06003493846BC
:1057900000F01EFBE060BDE8F08100000000204149
:1057A00010B5012211020448FCF784FC01225102C9
:1057B0000148FCF77FFC10BD000C014070B50446A9
:1057C0000D480068C06820F020000B490968C860D7
:1057D0002046FAF701FE85B2C8232A46214606482C
:1057E000FEF7C1F904480068C06840F02000024993
:1057F0000968C86070BD00001403002010B53D4A60
:10580000128802B110BD3C4A1278EAB900223B4B23
:105810001A8023280AD0242804D03C280ED07B28C4
:1058200010D107E00122344B1A700CE00222324BF7
:105830001A7008E00322304B1A7004E004222E4B49
:105840001A7000E0DEE700BF2C4A1288FF2A07DA50
:105850002A4A13881288521C284C2280284AD05485
:10586000254A1278012A0AD1212808D10023244A86
:10587000224C2488135501221E4B1A802BE01E4A0D
:105880001278022A0AD1212808D100221C4B1B4C75
:1058900024881A550122174B1A801CE0164A1278E8
:1058A000032A0AD17D2808D10022154B134C2488E5
:1058B0001A5501220F4B1A800DE00F4A1278042A64
:1058C00009D13E2807D100230D4A0C4C24881355DA
:1058D0000122084B1A80074A12880AB1094A11703E
:1058E000064A1288FF2A02DD0022044B1A8000BFFC
:1058F00088E700001200002014000020160000209D
:10590000340400201500002010B500290AD00878C2
:10591000002807D005487844FBF780F9002801D01B
:10592000002010BD0248784410BD0000660B000046
:105930005E0B000010B500290AD00878002807D0B7
:1059400005487844FBF76AF9002801D0002010BD13
:105950000248784410BD0000560B00004E0B0000BA
:1059600021F00042A2F16052B2F5801F01F0004325
:1059700028BFD2F17F6C0BD95FEA001C43EAC20258
:1059800042EB507018BF704728BF20F001007047ED
:10599000B2F5801FBCBF184670474FEA410C1CF59A
:1059A000001F02D2084600F0DABA70B500F096F88F
:1059B00000000089FFF7F6BF4FF00040A0F580001F
:1059C0007047000002494FF0000000F045BB00BFE7
:1059D0000000F87F491058BFC1F140415B1058BF2B
:1059E000C3F140438B42EFF30080704751EA030C50
:1059F00017D41CF5801F58BFBCF5801F00F106802E
:105A0000994218BF704708BF9042704707D711F5F9
:105A1000801F58BF13F5801F19D4994270478942DF
:105A200070471CF5801F08D5BCF5801FF7D58B4249
:105A300018BF704708BF824270474FF4001C1CEB30
:105A4000410F38BF1CEB430F01D28B42704770B53A
:105A500000F044F8922449004FF000514FF0805379
:105A6000FFF7B8BF51EA030C17D41CF5801F58BFCD
:105A7000BCF5801F00F10680994218BF704708BF2F
:105A80009042704707D711F5801F58BF13F5801F4C
:105A900019D499427047894270471CF5801F08D578
:105AA000BCF5801FF7D58B4218BF704708BF8242F4
:105AB00070474FF4001C1CEB410F38BF1CEB430F29
:105AC00001D28B42704770B500F008F8922449006B
:105AD0004FF000514FF08053FFF77CBF0EF1020EE4
