:020000040800F2
:10000000380A0020CD010008DB1F0008191B00087A
:10001000D91F0008D30200083125000800000000A5
:10002000000000000000000000000000DF1F0008CA
:10003000D502000800000000DD1F0008E11F0008D5
:10004000E7010008E7010008E7010008E7010008F0
:10005000E7010008E7010008E7010008E7010008E0
:10006000E7010008E7010008E7010008E7010008D0
:10007000E7010008E7010008E7010008E7010008C0
:10008000E7010008E7010008E7010008E7010008B0
:10009000E7010008E7010008E7010008E7010008A0
:1000A000E7010008E7010008E7010008E701000890
:1000B00045200008512000085D200008E7010008E5
:1000C000E7010008E7010008E7010008E701000870
:1000D000E70100080D25000819250008252500085E
:1000E000E7010008E7010008E7010008E701000850
:1000F000E7010008E7010008E7010008E701000840
:10010000E7010008E701000869200008E70100088E
:10011000E701000829230008E7010008752000080E
:10012000E7010008E7010008E7010008E70100080F
:1001300000F002F800F03AF80AA090E8000C8244BF
:100140008344AAF10107DA4501D100F02FF8AFF29C
:10015000090EBAE80F0013F0010F18BFFB1A43F0A5
:1001600001031847202B0000402B0000103A24BF49
:1001700078C878C1FAD8520724BF30C830C144BF0C
:1001800004680C607047000000230024002500264E
:10019000103A28BF78C1FBD8520728BF30C148BFEA
:1001A0000B6070471FB51FBD10B510BD00F05CF8A7
:1001B0001146FFF7F7FF02F0DBF900F07AF803B41D
:1001C000FFF7F2FF03BC00F07DF80000094880470C
:1001D00009480047FEE7FEE7FEE7FEE7FEE7FEE729
:1001E000FEE7FEE7FEE7FEE704480549054A064B41
:1001F0007047000043200008310100083804002047
:10020000380A002038060020380600204FF000028F
:1002100000B5134694469646203922BFA0E80C50FC
:10022000A0E80C50B1F12001BFF4F7AF090728BFD7
:10023000A0E80C5048BF0CC05DF804EB890028BF53
:1002400040F8042B08BF704748BF20F8022B11F07C
:10025000804F18BF00F8012B7047704770477047F8
:1002600000487047D40300207546FFF7F9FFAE46FB
:1002700005006946534620F00700854618B020B5B2
:10028000FFF7B2FFBDE820404FF000064FF0000737
:100290004FF000084FF0000B21F00701AC46ACE82E
:1002A000C009ACE8C009ACE8C009ACE8C0098D469B
:1002B000704710B50446AFF300802046BDE81040FB
:1002C000FFF77DBF01491820ABBEFEE72600020004
:1002D0007047FEE77047000010B53C21084800F069
:1002E000ADFF3C21074800F0A9FF3C21064800F083
:1002F000A5FFBDE810403C21044800F09FBF00006E
:10030000140000205C000020A4000020EC0000206D
:1003100072B6FEE710B590F821100022022905D030
:100320000421816380F82020012010BD01680B6842
:1003300023F00E030B6001680B6823F001030B60D0
:1003400090F84030C46B012101FA03F3636080F838
:10035000211080F82020104610BD00002DE9F05F2C
:1003600090F821100024022903D004218163012484
:1003700085E001680A6822F00E020A6001680A68D6
:1003800022F001020A603F4E3E4FB215DFF8F4C082
:10039000DFF8F090DFF8ECA0DFF8E8B0DFF8E4E099
:1003A0000168783F13011502ACF1640CA9F1500902
:1003B000AAF13C0AABF1280BAEF1140E4FF48018F1
:1003C000B14227D9B9420ED0614512D049451DD05E
:1003D000514518D0594518D0714501D1424615E014
:1003E000294EB14201D1012210E0274E1436B1420C
:1003F00001D110220AE0244E2836B14206D0224A0A
:100400003C32914201D11A4600E02A461E49091F9A
:100410000A602BE0B94213D0614517D0494522D07C
:1004200051451DD059451DD0714501D142461AE0B4
:10043000B14202D14FF0807215E0134EB14201D1AA
:10044000012210E0104E1436B14201D110220AE010
:100450000D4E2836B14206D00B4A3C32914201D1B2
:100460001A4600E02A46074980394A60012180F88F
:100470002110002180F82010416B01B188472046EF
:10048000BDE8F09F80000240080402402DE9F84FCB
:10049000DFF8C8910024A9F1040B23460F2709F1C6
:1004A000040AABF1040ED1E00125A54006EA0502DD
:1004B000AA4276D1DFF8A8C14E68A6EB0C086645C3
:1004C0002BD00DDC032E34D005DC36B3012E19D031
:1004D000022E2FD11BE0112E16D0122E2AD119E098
:1004E000B8F5881F19D006DCB8F5803F15D0B8F5EF
:1004F000801F1FD111E0B8F5001F0ED0B8F5041F02
:1005000018D10AE0CB6815E0CB681B1D12E0CB6860
:1005100008330FE0CB680C330CE08B682BB1012B58
:100520004FF0080303D0456104E0042302E00561B5
:1005300000E00023FF2A01D8064601E000F104068E
:100540004FEA840501D9A5F12005D6F8008007FA05
:1005500005FC28EA0C0803FA05F548EA0508C6F880
:1005600000804D68ED0070D53E4DAE6946F0010645
:10057000AE61AD6924F0030605F0010500953A4D22
:1005800006EB050CDCF80850A607360F07FA06F84C
:1005900025EA0805DFF8D480404503D14FF0000874
:1005A00025E052E0DFF8C880404502D14FF0010855
:1005B0001DE0DFF8C080404502D14FF0020816E090
:1005C000DFF8B480404502D14FF003080FE0DFF8B8
:1005D000AC80404502D14FF0040808E0DFF8A0806D
:1005E000404502D14FF0050801E04FF0060808FA37
:1005F00006F848EA0508CCF808804D68D9F800608C
:10060000ED024D4601D5164300E096432E604D683D
:10061000DAF80060AD02554601D5164300E0964376
:100620002E604D68DBF80060AD035D4601D51643D2
:1006300000E096432E604D68DEF80060ED037546DD
:1006400001D5164300E096432E60641C0A681646E6
:10065000E2407FF429AFBDE8F88F000008040140B4
:10066000000011100010024000000140000801408D
:10067000000C01400010014000140140001801402E
:10068000001C01400AB1016170470904FBE700004A
:1006900001488068704700000000002070B5040029
:1006A00004D094F84100002510B106E0012070BD8F
:1006B00084F84050204601F06DF9242084F8410070
:1006C0002068C16821F40051C160204601F0C2FEDB
:1006D0002068016921F4904101612068416921F09D
:1006E000220141612068416941F0080141612068AF
:1006F000C16841F40051C1606564202084F8410064
:1007000084F842006563002070BD000002488168E3
:10071000027811448160704700000020074810B53E
:10072000016841F010010160032000F079F8002019
:1007300000F006F800F024F8002010BD0020024070
:1007400070B50D4D04464FF47A712878B1FBF0F086
:100750000A490968B1FBF0F000F0E0FA48B9102C42
:1007600007D200222146501E00F03AF800206C60AB
:1007700070BD012070BD0000000000200C000020B2
:100780000E4808B5816941F001018161816901F07C
:1007900001010091C16941F08051C161C06900F05F
:1007A00080500090042000F03BF80548416821F09B
:1007B000E06141F00071416008BD0000001002409E
:1007C00000000140002809DB00F01F0201219140D8
:1007D0004009800000F1E020C0F8001170470000DF
:1007E000F0B40E4B1B680C46C3F30223C3F107059C
:1007F000042D00D90425191D072901D2002300E08A
:10080000DB1E012606FA05F1491E214099409E4053
:10081000761E16403143F0BC01F08BBE0CED00E0BB
:10082000064900F0070208684FF6FF03184040EA47
:100830000220034A10430860704700000CED00E0FE
:100840000000FA052DE9F0470F46050061D0434E40
:10085000306800F00700B84209D2306820F0070085
:1008600038433060306800F00700B84251D1286842
:100870003B4C810712D5400703D5606840F4E06027
:1008800060602878000703D5606840F460506060BD
:100890006068A96820F0F000084360602878C0070D
:1008A00028D06868012810D02168022810D0890754
:1008B00000292EDA616821F0030101436160FFF72E
:1008C000E7FE804641F288390DE021688903EFE7B1
:1008D0008901EDE7FFF7DCFEA0EB0801494502D9ED
:1008E0000320BDE8F0876068696800F00C00B0EB99
:1008F000810FEFD1306800F00700B8420BD93068A3
:1009000020F0070038433060306800F00700B8423C
:1009100001D00120E5E72878400705D56068E9683F
:1009200020F4E060084360602878000706D560681E
:10093000296920F4605040EAC100606000F038F896
:100940006168084AC1F30311515CC8400649086058
:1009500006480068FFF7F4FE0020C2E700200240CE
:10096000001002406C2C00080C0000200400002045
:100970000448054900684968044AC1F30221515CF2
:10098000C84070470C000020001002407C2C00087A
:100990000448054900684968044AC1F3C221515C12
:1009A000C84070470C000020001002407C2C00085A
:1009B0000E4A51680E4801F00C03042B11D0082B8D
:1009C0000FD10C48C1F38343C903C05C0AD55168F9
:1009D000084AC1F34041921E515C054A5043B0FBA6
:1009E000F1F070470449484370470000001002408E
:1009F00000127A005C2C000800093D002DE9F84F38
:100A0000040070D02078C04DC00749D06868C0F39A
:100A10008100012807D06868C0F38100022809D14D
:100A20006868C00306D52868800339D56068002847
:100A3000E7D035E06068B0F5803F0BD010B1B0F57D
:100A4000A02F11D0286820F480302860286820F476
:100A5000802002E0286840F480302860606890B10F
:100A6000FFF716FE06460AE0286840F4802028605A
:100A7000F0E700BFFFF70CFE801B642873D82868DE
:100A80008003F7D50CE0FFF703FE064605E000BF44
:100A9000FFF7FEFD801B6428F0D828688003F7D498
:100AA00020789A4E80074FF001094FF0000839D5A1
:100AB000686810F00C0F07D06868C0F38100022846
:100AC00009D16868C00306D42868800714D5206956
:100AD000012808D110E02069B0B1C6F80090FFF7F6
:100AE000D7FD074605E00AE1FFF7D2FDC01B02284B
:100AF000C4D828688007F7D52868616920F0F80015
:100B000040EAC10028600DE0C6F80080FFF7C0FD94
:100B1000074604E0FFF7BCFDC01B022823D8286865
:100B20008007F7D4207800072CD57948A169D9B17E
:100B3000C0F80090FFF7ACFD074604E0FFF7A8FD02
:100B4000C01B02280FD8686A8007F7D571484FF498
:100B5000FA510068B0FBF1F0009000BF0098411E10
:100B60000091FAD20EE080E0C0F80080FFF790FD1F
:100B7000074604E0FFF78CFDC01B022875D8686AA1
:100B80008007F7D42078400760D5E8690027C000C7
:100B900008D4E86940F08050E861E869012700F076
:100BA000805000905C480168C90513D401688346F1
:100BB00041F480710160FFF76BFD824606E000BFE3
:100BC000FFF766FDA0EB0A0064284ED8DBF80000B2
:100BD000C005F5D5E06801280AD008B1052813D072
:100BE000286A20F001002862286A20F0040002E050
:100BF000286A40F001002862E06841F2883B98B121
:100C0000FFF746FD82460BE0286A40F004002862A8
:100C1000EEE700BFFFF73CFDA0EB0A0159455AD8AB
:100C2000286A8007F6D50CE0FFF732FD824605E022
:100C3000FFF72EFDA0EB0A0159454CD8286A800722
:100C4000F6D41FB1E86920F08050E861E06988B30C
:100C50006968C1F38101022944D00228C6F8608086
:100C600004D0FFF715FD044638E034E0FFF710FD2F
:100C7000074604E0FFF70CFDC01B02282BD82868AC
:100C80008001F7D4206AB0F5803F05D16868A1687B
:100C900020F4003008436860D4E90801084369681B
:100CA00021F4741108436860C6F86090FFF7F0FC07
:100CB000044606E025E000BFFFF7EAFC001B02281F
:100CC00009D828688001F7D51BE000BFFFF7E0FCDA
:100CD000001B022802D90320BDE8F88F2868800194
:100CE000F4D40EE00128F7D06868226A00F480315D
:100CF000914204D1616A00F47010884201D0012051
:100D0000EAE70020E8E7000000100240000042424D
:100D1000800442420C0000200070004010B5401ECC
:100D2000B0F1807F01D3012010BD4FF0E02460615D
:100D30000F21601701F0FDFB0020A061072020615A
:100D4000002010BD7047704710B590F83C20012A74
:100D500022D0012280F83C20CA688C6822F44072BC
:100D600022434C6822F4806222430C6822F4006221
:100D700022430C6922F4805222434C6922F400522F
:100D80002243C969002322F480420A4301684A646D
:100D900080F83C30002010BD022010BD70B590F8E6
:100DA0003C20012A2CD0012480F83C40022280F80B
:100DB0003D2003685A689D6822F070060A68324335
:100DC0005A60104B02689A420ED00F4B9A420BD0D9
:100DD000B2F1804F08D00D4B9A4205D00C4B9A428D
:100DE00002D00C4B9A4204D1496825F08003194384
:100DF000916080F83D40002180F83C10084670BDAD
:100E0000022070BD002C014000340140000400406D
:100E100000080040000C004010B5040003D094F816
:100E20003D0010B107E0012010BD002084F83C0017
:100E3000204600F01FF8022084F83D00211D2068A4
:100E400001F01EF9012084F8460084F83E0084F881
:100E50003F0084F8400084F8410084F8420084F8A0
:100E6000430084F8440084F8450084F83D000020E5
:100E700010BD000008B5174A01681748914207D114
:100E8000C16941F01001C161C06900F010001EE0AD
:100E9000124A914211D1C16941F02001C161C0697A
:100EA000012200F02000009011463720FFF798FC47
:100EB000BDE808403720FFF785BC094A914207D1B9
:100EC000816941F400518161806900F40050009013
:100ED00008BD000000100040001002400014004057
:100EE0000034014090F83D10012901D001207047E5
:100EF000022180F83D100168CA6842F00102CA6010
:100F000000680E4988420ED00D4988420BD0B0F1DE
:100F1000804F08D00B49884205D00B49884202D047
:100F20000A49884204D1816801F00701062903D0EB
:100F3000016841F00101016000207047002C014070
:100F4000003401400004004000080040000C004054
:100F500070B5044690F83C000025012817D0012602
:100F600084F83C60022084F83D002068826822F00A
:100F7000770222F47F4282600868502838D00DDC66
:100F800020284FD005DC90B3102811D14AE0022070
:100F900070BD302846D040280AD13BE060282FD0D1
:100FA00070280DD0B0F5805F03D0B0F5005F12D08F
:100FB000012584F83D60002084F83C00284670BD7F
:100FC000CB68D1E90121206801F0B5F8206881687B
:100FD00041F0770109E0CB68D1E90121206801F0F7
:100FE000AAF82068816841F480418160E1E719E056
:100FF000CA684968206801F073F95021206806E04A
:10100000CA684968206801F07CF96021206801F015
:101010009CF8CEE7CA684968206801F061F9402170
:101020002068F4E7226801461046F0E72DE9F04118
:101030000D46040003D094F83D0018B108E00120EB
:10104000BDE8F081002084F83C00204600F040F824
:10105000022084F83D002068816844F20702914331
:101060008160211D206801F00BF822689068916969
:10107000166A2B68AF69034340F20330814341EAAB
:101080000721A868EF6908434FF6FC418843E968E7
:1010900040EA0720014328692F6A000140EA07302F
:1010A000084369686D6926F0220646EA051529435A
:1010B00093602268906154F8460B0162012004F8A5
:1010C0001F09E0752076E0762077A0750020B7E74D
:1010D00030B585B000240094019402940394006814
:1010E0004F49504B504DB0F1804F23D04F4CC02250
:1010F000A04256D1C86940F00200C861C86900F03A
:1011000002000490886940F004008861886969469B
:1011100000F00400049000921846FFF7B7F900228F
:1011200002211D20FFF75CFB5FF01D00FFF74AFB6B
:1011300005B030BDC86940F00100C861C86900F061
:1011400001000490886940F004008861886900F01B
:1011500004000490886940F0080088618869694645
:1011600000F0080004904FF4004000901846FFF78C
:101170008DF90820CDE90004694628460294FFF75E
:1011800085F92B48416821F4407141F0E06141F458
:1011900080714160002202211C20FFF721FB1C20EE
:1011A000C4E7244CA0421BD1C86940F00400C861C8
:1011B000C86900F004000490886940F00800886164
:1011C0008869694600F00800049000922846FFF7FD
:1011D0005DF9002202211E20FFF702FB1E20A5E779
:1011E000154A9042A4D1C86940F00800C861C86996
:1011F00000F008000490886940F004008861886964
:10120000694600F004000490032000901846FFF7A0
:101210003DF9002202213220FFF7E2FA322085E771
:101220000010024000080140000C01400004004092
:101230000000014000080040000C004070B590F82C
:101240003E60044690F83F5090F8423090F84320BA
:10125000022021B104290ED0012E1BD114E0012E51
:1012600018D1012B16D184F83E0084F842000122E7
:101270000021206820E0012D0CD1012A0AD184F838
:101280003F0084F8430014E0012D03D1012B01D16C
:10129000012A01D0012070BD84F83E0084F83F008F
:1012A00084F8420084F8430001220021206800F005
:1012B00035FF01220421206800F030FF206801681A
:1012C00041F001010160002070BD70472DE9F0413F
:1012D00004460068C66805694FF00007A90713D5E2
:1012E000B10711D5F91E01610120207720688069BE
:1012F0008007204602D0FFF7E8FF04E000F0A4F8E2
:10130000204600F036F92777680716D5700714D500
:1013100021686FF00400086102202077206880694E
:1013200010F4407F204602D0FFF7CFFF04E000F02A
:101330008BF8204600F01DF92777280715D53007D0
:1013400013D521686FF00800086104202077206819
:10135000C0698007204602D0FFF7B7FF04E000F025
:1013600073F8204600F005F92777E80616D5F00651
:1013700014D521686FF010000861082020772068DC
:10138000C06910F4407F204602D0FFF79EFF04E0C2
:1013900000F05AF8204600F0ECF82777E80708D06C
:1013A000F00706D021686FF001000861204600F0C8
:1013B0003BF9280608D5300606D521686FF0800075
:1013C00008612046FFF7BEFC680608D5700606D502
:1013D00021686FF040000861204600F06FF9A80610
:1013E0000AD5B00608D521686FF0200008612046B4
:1013F000BDE8F041FFF7A7BCBDE8F08100B585B0BE
:101400000021009101910291039100680B498842EB
:1014100012D10B48816941F01001816180696946F0
:1014200000F0100004904FF47070009002200190C2
:1014300003900448FFF72AF805B000BD00340140CE
:101440000010024000100140704770B5044690F84B
:101450003C0000260D4601280FD0012084F83C00F6
:101460006AB1042A1DD0082A2FD00C2A3FD00126A9
:10147000002084F83C00304670BD022070BD20681A
:1014800000F06CFE2068816941F0080181612068EC
:10149000816921F004018161206881692A69114311
:1014A00011E0206800F08AFE2068816941F4006143
:1014B00081612068816921F480618161206881698E
:1014C0002A6941EA02218161D2E7206800F0ACFE7E
:1014D0002068C16941F00801C1612068C16921F03B
:1014E0000401C1612068C1692A69114311E02068C3
:1014F00000F0CEFE2068C16941F40061C16120683E
:10150000C16921F48061C1612068C1692A6941EA29
:101510000221C161ACE710B5040003D094F83D008E
:1015200010B107E0012010BD002084F83C002046E7
:1015300000F01EF8022084F83D00211D206800F014
:101540009FFD012084F8460084F83E0084F83F00A7
:1015500084F8400084F8410084F8420084F8430095
:1015600084F8440084F8450084F83D00002010BD54
:101570007047704710B50446022249B104290ED0C5
:10158000082913D094F84100012816D0012010BD7D
:1015900094F83E000128F9D184F83E200FE094F839
:1015A0003F000128F2D184F83F2008E094F8400081
:1015B0000128EBD184F8402001E084F84120012289
:1015C000206800F0ABFD13492068134A884201D01F
:1015D000904203D1436C43F4004343642068884243
:1015E0000DD090420BD0B0F1804F08D00B4988420B
:1015F00005D00B49884202D00A49884204D181684B
:1016000001F00701062903D0016841F001010160E2
:10161000002010BD002C01400034014000040040B7
:1016200000080040000C00402DE9F04100681F490F
:10163000884222D11E4C6078062801D300206070B9
:101640001D4D21781B482E68C9B1677807EB8701CB
:1016500000EB8100406801F017F9A0F6C410404289
:10166000F062E8600021384601F03CF86078401CE8
:101670006070207880F001002070BDE8F081617812
:10168000884601EB810100EB8107786801F0FCF8E6
:10169000F062786801F0F8F8E8600121404601F056
:1016A00021F8607800F0DCFFE3E700000014004060
:1016B000100000205C0300207C0100207047704770
:1016C00070470000F8B5016804460868CA684B69AD
:1016D00010F00F0F4FF0000559D003F0010602F48F
:1016E0009077374365D0C10705D0D10503D5616C2C
:1016F00041F001016164410705D5D90703D0616C50
:1017000041F002016164810705D5D90703D0616CFE
:1017100041F004016164010707D502F02001314363
:1017200003D0616C41F008016164616C00293AD01A
:10173000800604D5900602D5204600F02AFE2068D7
:101740004069616CC0F38010090700D460B3204683
:1017500000F0F8FD20684069400621D5206814306B
:1017600050E8001F21F0400140E80012002AF5D1A6
:10177000E06BA8B16D494163E06BFEF7EFFD002817
:1017800011D0E06B416B01B0BDE8F0400847830623
:101790000FD593060DD52046BDE8F84000F0F9BD01
:1017A0002046FFF78DFFF8BD2046FFF789FF6564EF
:1017B000F8BD266B2023012E7CD1C6067AD5D6062D
:1017C00078D508684868009048694FF002064006DE
:1017D00040D5E16B086840680004000CE8D0A28D99
:1017E0008242E5D9E085886920282DD020680C3018
:1017F00050E8001F21F4807140E80012002AF5D162
:101800002068143050E8001F21F0010140E8001268
:10181000002AF5D12068143050E8001F21F0400163
:1018200040E80012002AF5D184F842302563206890
:101830000C3050E8001F21F0100140E80012002A8F
:10184000F5D1E06BFEF766FD6663A08DE18D401A71
:1018500081B22AE0A08DE18D401A81B2E08D00288E
:10186000A6D00029A4D022680C3252E8000F20F440
:10187000907042E80007002FF5D12068143050E83E
:10188000002F22F0010240E80027002FF5D184F854
:101890004230256320680C3050E8002F22F01002FF
:1018A00040E80023002BF5D166632046FFF707FFD1
:1018B000F8BDFFE705062BD5150629D594F841009C
:1018C0002128F5D1A068B0F5805F01D12069B0B1C1
:1018D000206A411C2162216800784860E08C401E2B
:1018E0000004000CE084E3D12068C16821F080018D
:1018F000C1602068C16841F04001C160D8E7206A3A
:101900000088C0F308004860206A801C2062E5E778
:101910004006CDD55006CBD5CA68204622F04002FD
:10192000CA6084F8413000F0F6F8C1E735230008BA
:1019300070B5040004D094F84100002510B106E011
:10194000012070BD84F84050204600F023F8242088
:1019500084F841002068C16821F40051C16020462C
:1019600000F078FD2068016921F490410161206850
:10197000416921F02A0141612068C16841F40051A8
:10198000C1606564202084F8410084F842006563EA
:10199000002070BDF0B585B000240094019402943D
:1019A0000394544B0268544903209A421FD1CA69D8
:1019B00042F48012CA61CA6902F4801204928A69F0
:1019C00042F010028A618969039001F010010491CC
:1019D000991400911221019169464848FEF756FD7D
:1019E000002201213520FEF7FBFE35202AE0444F7E
:1019F0000223444D5E02BA4228D18A6942F48042F1
:101A00008A618A6902F4804204928A6942F004027F
:101A10008A618969039001F0040104911902CDE9FA
:101A2000001369462846FEF731FDCDE9006469469A
:101A300028460294FEF72AFD002201212520FEF708
:101A4000CFFE2520FEF7BEFE05B0F0BD2E4FBA42F8
:101A500026D1CA6942F40032CA61CA6902F400326E
:101A600004928A6942F004028A618969039001F054
:101A7000040104910421CDE9001369462846FEF7CC
:101A800005FD0820CDE90004694628460294FEF7CA
:101A9000FDFC002201212620FEF7A2FE2620D1E730
:101AA0001A4DAA42D0D1CA6942F48022CA61CA69D9
:101AB00002F4802204928A6942F008028A618969EC
:101AC000134D01F00801CDE90301CDE9006369463A
:101AD0002846FEF7DBFCE814CDE9000469462846F9
:101AE0000294FEF7D3FC002201212720FEF778FEA6
:101AF0002720A7E7005000400010024000100140DE
:101B00000038014000080140004400400048004007
:101B1000000C014070477047FEE700002DE9F043DC
:101B200085B00024254800940194029403948169AF
:101B300041F020018161816901F0200104918169F6
:101B400041F004018161816901F00401049181691E
:101B500041F008018161816901F008010491816906
:101B600041F0100181618069DFF8548000F01000BD
:101B70004FF488550490002229464046FEF782FD26
:101B8000DFF840904FF48067002239464846FEF760
:101B900079FD0095022601250396CDE90154694699
:101BA0004046FEF773FC00970396CDE90154694661
:101BB0004846FEF76BFC05B0BDE8F083001002401C
:101BC000000801400010014010B58CB02421684687
:101BD000FEF71CFB0024164809944FF080410A943C
:101BE000C0E900144FF6FF71C0E90241046184614D
:101BF0000320CDE900040120CDE902040A2104916B
:101C0000CDE90540CDE9074169460948FFF70EFADD
:101C100008B1FEF77DFB099409A905480A94FFF76E
:101C2000BDF8002801D0FEF773FB0CB010BD00001A
:101C30001400002010B58CB024216846FEF7E6FAA7
:101C400000241648099414490A94C0E900144FF678
:101C5000FF71C0E90241046184610320CDE9000401
:101C60000120CDE902040A210491CDE90540CDE926
:101C7000074169460948FFF7D9F908B1FEF748FB63
:101C8000099409A905480A94FFF788F8002801D0AB
:101C9000FEF73EFB0CB010BD000400405C000020CD
:101CA00010B58CB024216846FEF7B0FA002416481F
:101CB000099414490A94C0E900144FF6FF71C0E971
:101CC0000241046184610320CDE900040120CDE9D3
:101CD00002040A210491CDE90540CDE90741694696
:101CE0000948FFF7A3F908B1FEF712FB099409A907
:101CF00005480A94FFF752F8002801D0FEF708FBC8
:101D00000CB010BD00080040A400002010B58CB03D
:101D100024216846FEF77AFA0024164809941449EB
:101D20000A94C0E900144FF6FF71C0E90241046152
:101D300084610320CDE900040120CDE902040A21D9
:101D40000491CDE90540CDE9074169460948FFF70F
:101D50006DF908B1FEF7DCFA099409A905480A945F
:101D6000FFF71CF8002801D0FEF7D2FA0CB010BD26
:101D7000000C0040EC0000201CB500240E4800942C
:101D80000C49019401604721C0E9011447F2305128
:101D90008461C160FFF740F808B1FEF7B9FA00941A
:101DA000694605480194FEF7F9FF002801D0FEF7C7
:101DB000AFFA1CBD00100040340100201CB5002407
:101DC0000E4800940C49019401604721C0E90114B8
:101DD00009218461C160FFF71FF808B1FEF798FA86
:101DE0000094694605480194FEF7D8FF002801D009
:101DF000FEF78EFA1CBD0000001400407C0100209C
:101E000010B596B000240F9410941194129413946A
:101E10001C2168461494FEF7F9F9202107A8FEF763
:101E2000F5F93448324901600121C0E9011440F25A
:101E3000CF71C0E9031444618461FEF7EDFF08B17E
:101E4000FEF766FA4FF480500F900FA92948FFF76C
:101E50007FF808B1FEF75CFA2648FFF75CFB08B193
:101E6000FEF756FA139413A922481494FEF796FF2E
:101E700008B1FEF74DFA6020CDE900040294039406
:101E800004940594002269461A480694FFF7DDFA87
:101E900008B1FEF73DFA042269461648FFF7D5FA65
:101EA00008B1FEF735FA082269461248FFF7CDFA65
:101EB00008B1FEF72DFA0C2269460E48FFF7C5FA65
:101EC00008B1FEF725FA0794089409944FF40050DE
:101ED0000A94CDE90B4007A906480E94FEF734FF9B
:101EE00008B1FEF715FA0348FFF788FA16B010BDDF
:101EF00000340140C40100200C4810B50A490160BB
:101F00004FF4E1314160002181600C22C160C0E9E1
:101F100004128161C161FEF7C1FB002803D0BDE856
:101F20001040FEF7F5B910BD005000400C02002033
:101F30000C4810B50A4901604FF4E13141600021BD
:101F400081600C22C160C0E904128161C161FFF7A8
:101F5000EFFC002803D0BDE81040FEF7D9B910BD52
:101F600000380140540200200C4810B50A490160B5
:101F70004FF4E1314160002181600C22C160C0E971
:101F800004128161C161FFF7D3FC002803D0BDE8D2
:101F90001040FEF7BDB910BD004400409C02002077
:101FA0000C4810B50A4901604FF4E131416000214D
:101FB00081600C22C160C0E904128161C161FFF738
:101FC000B7FC002803D0BDE81040FEF7A1B910BD52
:101FD00000480040E4020020FEE7FEE7704770473B
:101FE000FEF794BB30B58FB028216846FEF70EF996
:101FF00014210AA8FEF70AF901210804CDE900100E
:102000000024029402250491CDE907504FF4E0101A
:1020100009906846FEF7F2FC08B172B6FEE70F20A1
:10202000CDE90A054FF48060CDE90C4002210AA8F1
:102030000E94FEF707FC002801D072B6FEE70FB041
:1020400030BD70470148FFF741B90000140000207F
:102050000148FFF73BB900005C0000200148FFF792
:1020600035B90000A40000200148FFF72FB9000097
:10207000EC0000200148FFF729B900007C01002096
:10208000F0B50268204C214D214E224F224B4FF0DB
:10209000804CA04209D0984207D0604505D0A842A4
:1020A00003D0B04201D0B84204D122F0700E4A6889
:1020B00042EA0E02A04209D0984207D0604505D0FE
:1020C000A84203D0B04201D0B84203D122F44075F7
:1020D000CA682A434D6922F080022A4302608A6856
:1020E000C2620A688262A04201D0984201D10969A5
:1020F0000163012141610169C90703D0016921F030
:1021000001010161F0BD0000002C0140000400400D
:1021100000080040000C00400034014010B501F000
:102120001F030121046A99408C430462016A9A40AA
:102130001143016210BD10B5846842EA032224F401
:102140007F440A432243826010BD826822F07002FD
:102150000A4342F00701816070470000F0B5036A4E
:10216000026A22F00102026242688469124E24F07F
:1021700073050C682C4323F002058B682B430D4D2F
:10218000A84201D0B04205D123F00807CB683B43F9
:1021900023F00403A84201D0B04205D14D6922F4D6
:1021A000407215438A692A434260846149684163E9
:1021B0000362F0BD002C014000340140F0B5026A1A
:1021C000036A23F010030362436884690D6824F4F2
:1021D000E64444EA05248D6822F0200242EA051212
:1021E0000F4D104EA84201D0B04206D1CF6822F068
:1021F000800242EA071222F04002A84201D0B04217
:1022000007D14D6923F4406343EA85038D6943EAAE
:10221000850343608461496881630262F0BD000008
:10222000002C014000340140F0B5026A036A23F437
:10223000807303624368C46922F4007224F073055A
:102240000C68124E2C438D6842EA05220E4DA842BE
:1022500001D0B04206D1CF6822F4006242EA0722E0
:1022600022F48062A84201D0B04207D14D6923F424
:10227000405343EA05138D6943EA05134360C46183
:102280004968C1630262F0BD002C01400034014086
:1022900030B5046A026A22F4805202624268C3695D
:1022A0000D6823F4E64343EA05238D6824F40054C3
:1022B00044EA0534084DA84202D0084DA84204D192
:1022C0004D6922F4804242EA85124260C361496846
:1022D0000164046230BD0000002C01400034014064
:1022E00010B5036A046A24F001040462846924F0CE
:1022F000F00444EA021423F00A020A4384610262F1
:1023000010BD10B5036A046A24F0100404628469E5
:1023100023F0A00324F4704444EA023243EA01119A
:102320008261016210BD00000148FFF7CBB90000D7
:102330000C02002010B5406A0021C185C184FFF75E
:10234000BFF910BD01680C3151E8002F22F49072E2
:1023500041E80023002BF5D10168143151E8002F2A
:1023600022F0010241E80023002BF5D1016B012985
:1023700009D101680C3151E8002F22F0100241E828
:102380000023002BF5D1202180F8421000210163A9
:10239000704708B590F84210222901D0022008BDEC
:1023A00082684FF480539A4201D1016921B1816A58
:1023B0009A421BD04AB10AE00268816A5268C2F3AD
:1023C00008020A80816A891C08E0026972B1026809
:1023D000526802F07F020A70816A491C8162C18DD5
:1023E000491E0904090CC18503D01BE0026852682C
:1023F000F1E70168CA6822F02002CA600168CA6871
:1024000022F48072CA6001684A6922F001024A61BE
:10241000202180F8421000214163026B012A03D081
:10242000FFF778FB002008BD016301680C3151E81B
:10243000002F22F0100241E80023002BF5D10168A3
:102440000A68D20602D50A6849680091818DFFF7B3
:1024500036F9E7E770B5044600680169E26821F4DF
:102460004051114301612169A06808436169084333
:102470002168CA6841F20C639A430243CA6020682B
:102480004169A26921F44071114341611E492068EC
:10249000884202D1FEF77CFA01E0FEF769FA00EB10
:1024A000C00101EB0012606864218000B2FBF0F310
:1024B000B3FBF1F36FF018067343B2FBF0F5B2FB18
:1024C000F0F605EB8305322303EB0515B5FBF1F5BB
:1024D000B6FBF1F605F0F00505EB0615B2FBF0F6DC
:1024E000B2FBF0F0B0FBF1F06FF01802504306EBD6
:1024F000800003EB0010B0FBF1F0216800F00F004A
:102500002844886070BD0000003801400148FFF792
:10251000D9B80000540200200148FFF7D3B80000EA
:102520009C0200200148FFF7CDB80000E402002023
:10253000FEE70907090E002804DB00F1E02080F81F
:102540000014704700F00F0000F1E02080F8141D27
:10255000704710B500F044F8BDE81040FDF7BCBE70
:1025600000224FF400510148FEF78CB800100140E2
:1025700008B5FEF7D3F8FFF735FDFFF7CFFAFFF701
:1025800023FBFFF757FBFFF78BFBFFF7BFFBFFF7C3
:10259000F3FBFFF713FCFFF733FCFFF7ADFCFFF78E
:1025A000C7FCFFF7E1FCFFF7FBFCFFF7D9FFFFF7E4
:1025B000D0FF00F033F805480090054B054A064966
:1025C000064800F0AFF800F0CBF8FEE72C0300203F
:1025D00000001B430000B0420000D2420000C8428D
:1025E00010B500210C48FEF7C5FF04210A48FEF78C
:1025F000C1FF08210848FEF7BDFF0C210648FEF781
:10260000B9FF0548002102685163026891630268BE
:10261000D1630068016410BDC401002030B4002003
:102620000C4A0D4B044641F2883500BF00EB800197
:10263000401C43F8212003EB810101F1040CC0B2DE
:102640008CE834000C610628F0D330BC0348FEF758
:1026500049BC00000080BB445C0300207C010020DA
:102660002DE9F0411E4D00EB800705EB8704A668BD
:1026700016F0FF4F2BD0206900F026F955F82710EF
:1026800000F07EF800F0E4F840F6BA11884203DC6E
:102690004FF4FA71884200DA084600F015F96168D3
:1026A00080460F4600F0F4F900F0D2F8054601210B
:1026B000304600F094FA20F0004000F0C9F8002DF8
:1026C00000DA6D42A84204DB0020C4E90180BDE8C5
:1026D000F0813146384600F053F86060F7E70000BB
:1026E0005C03002002460E48062A18D2DFE802F0FA
:1026F0000306090C0F120A4601210EE00A460221C8
:102700000BE00A46042108E00A46102105E00A46CB
:10271000202102E00A464FF48071FDF7B3BF7047F5
:10272000000C01402DE9F0410C4D0F46984616462D
:102730002946069C00F0E0F820602946384600F063
:10274000DBF860602946304600F0D6F8A0602946E4
:10275000404600F0D1F8E060BDE8F0810000204183
:1027600010B5064C012211022046FDF78BFF2046D2
:102770000122BDE810405102FDF784BF000C01406A
:1027800090EA010F48BF81F0004100F18881421AB0
:102790003CBF801A89184FEAD0524FF07F4C1CEA98
:1027A000410FA2EBD15318BF9CEA026F00F03B80AF
:1027B0004FF0004C4CEA00204CEA012121FA03FCC6
:1027C00010EB0C0C1ED202F1FF325FEA1C2040EB32
:1027D000C25038BF70471CF07F0F4FEA400C18BF43
:1027E000BCF17F4F38BF7047C3F12003994008BF49
:1027F00020F00100BCF17F4F38BF7047A0F1C0400E
:1028000000F041B94FEA3C00000A40EBC25028BF3B
:102810001CF0FF0F4FEA400CE6D018BFBCF17F4F11
:1028200038BF7047EAE79CEA026F05D010EA5C0FF8
:1028300008BF00F00040704710B500F0DEF800BFA0
:1028400064FBBE3E014800F098B900BF0000C07FA5
:1028500041000B0ED3F19E0208D950F400034FEA59
:10286000032323FA02F048BF4042704710B500F03E
:10287000C4F800BF49922480002070476FF00042E6
:1028800082EA200070470000C10DD1F19E0206DBF4
:102890004FEA002343F0004323FA02F0704700425E
:1028A00007D54FEA4001B1F1FE4F02D24FF00000D0
:1028B000704710B500F0A1F84992248000207047BD
:1028C0006FEA20007047000010F0004148BF40420E
:1028D000B0FA80F310FA03F2C3F19D030BD051EA72
:1028E000C35101EB1220530638BF704700F10100BD
:1028F00008BF20F0010070474FF47F0C1CEAD01293
:102900001EBF1CEAD11392EA0C0F93EA0C0F00F0E1
:10291000478090EA010F48BF42F480724FF0004CAC
:102920004CEA00204CEA012102EB0302A0FB011358
:10293000A2F50002002918BF43F001035B0028BF85
:102940004FEA330342EB22425FEA132C4CEBC250B6
:102950002EBFBCEB436FB2F57C0F70474FEA036CA0
:10296000BCF1004F08BF20F00100B2F57C0F38BF6A
:1029700070470BD582F0FF0212F5803FC8BF704749
:1029800000F1C040D8BF00F00040704700F5000CD7
:102990005FEA4C0C48BF7047B0F1C04000F073B81C
:1029A00090EA010F0CEAD11348BF42F480726245ED
:1029B00038BF634504D280EA010000F00040704750
:1029C00010B500F01AF800BF8900013E00F007B80A
:1029D00000F009B85FEA410C5FEA1C6C08D080EA9D
:1029E000010000F050B85FEA400C5FEA1C6CF6D1C1
:1029F0004FF00040A0F5800070470EF1020E2EF05F
:102A0000030E5EF8044B244204D44FEA4102B2F1B3
:102A10007F4F11D84FEA4003B3F17F4F0CD80ED14E
:102A20004FEAD07CB2F17F4F0CEB4C0C0CF1020C56
:102A300008BF4CEBD17C04E04FF0080C01E04FEAFA
:102A4000D17C0CEB4C0324FA03F404F00704B4F13A
:102A5000040C06D20EEB840CBDE810404CF0010CC7
:102A60006047DFE80CF0070802024FF00040A0F5D5
:102A7000800010BD0846420018BFD2F1807288BFA6
:102A800000F0004010BDFF2141EAD050C005704762
:102A900090EA010F48BF81F000413FF578AE421A3D
:102AA00004D882F00042A0EB020011444FEAD05259
:102AB0004FF07F4C1CEA410FA2EBD15318BF9CEAA8
:102AC000026F4AD04FF0004C4CEA00204CEA012142
:102AD00021FA03FCB0EB0C0C0FD412F0FE0F36D031
:102AE0005FEA4C001DD5001240EBC25038BF704762
:102AF0001CF03F0F18BF70470BE0A2F101025FEA24
:102B00001C2040EBC25038BF70471CF07F0F18BF2D
:102B10007047C3F12003994014BF401E20F001000C
:102B2000704780084FEA122308BF7047B0FA80FC54
:102B3000A2EB0C02CCF1280C60FA0CF093EA122FF5
:102B400004BF00EBC25070474FEAC3707047130ACE
:102B50005FEADC1008BF7047F6E79CEA026F04D01A
:102B600010EA5C0F08BF0020704710B5FFF745FF63
:102B700040DFF63E81F0004070470CF00F03092B58
:102B800008BF082000F051800A2B0BD0082B18BF7B
:102B9000704708BF1CF0400F0AD04FF000004FF004
:102BA000000170471CF0400F18BF4FF00040704705
:102BB0001CF0100F08D020F0704300F07F4242EA72
:102BC000D3014FEA4370704700F0604021F07F422C
:102BD00042EA000201F07F4040EA727070474FF015
:102BE000FF0212EAD0521CBF92F0FF038B42C2BF19
:102BF000D14200EBC1507047002A0AD0002B0BD005
:102C0000002900F00040A4BF40F0FE4040F4000066
:102C1000704700F00040704743024FF00B0C18BFA4
:102C20004CF0806C7FF40EAE70471CF4801F11D006
:102C30001CF4E02F03D06FEACC31490070474FF00D
:102C40004050EFF3008222F0704242EA000282F329
:102C5000008870474FF0000070470102020304052E
:102C6000060708090A0B0C0D0E0F101000000000DB
:102C7000000000000102030406070809000000002C
:102C800001020304A42C000800000020140000002E
:102C90006C010008B82C000814000020240A000071
:102CA0008801000801000000100000000000000082
:082CB00000127A000000000090
:0400000508000131BD
:00000001FF
